:020000041000EA
:1000000000B5324B212058609868022188439860DF
:10001000D860186158612E4B002199600221596106
:100020000121F02299502B49196001219960352056
:1000300000F044F80222904214D00621196600F024
:1000400034F8196E01211966002018661A6600F04E
:100050002CF8196E196E196E052000F02FF8012189
:100060000842F9D1002199601B49196000215960AB
:100070001A491B48016001219960EB211966A021F2
:10008000196600F012F800219960164914480160C1
:100090000121996001BC002800D000471248134993
:1000A000086003C880F30888084703B5996A0420EC
:1000B0000142FBD001200142F8D103BD02B5186610
:1000C0001866FFF7F2FF186E186E02BD00000240BE
:1000D000000000180000070000035F00212200005C
:1000E000F4000018222000A00001001008ED00E03C
:1000F00000000000000000000000000074B24E7A12
:1001000000200420F7010010C3010010C5010010F9
:10011000C1010010C1010010C1010010C101001097
:10012000C1010010C1010010C1010010C701001081
:10013000C1010010C1010010C9010010CB01001065
:10014000CD010010CD010010CD010010CD01001037
:10015000CD010010CD010010CD010010CD01001027
:10016000CD010010CD010010CD010010CD01001017
:10017000CD010010CD010010CD010010CD01001007
:10018000CD010010CD010010CD010010CD010010F7
:10019000CD010010CD010010CD010010CD010010E7
:1001A000CD010010CD010010CD010010CD010010D7
:1001B000CD010010CD010010CD010010CD010010C7
:1001C00000BE00BE00BE00BE00BE00BE00F04BF888
:1001D000103800BEF2EB8871806F0010AC6F001019
:1001E0003402001090A31AE700202149086006C8D5
:1001F00081F3088810471F48006800282FD10DA4FC
:100200000ECC002902D000F012F8F9E71A491B4A77
:10021000002000E001C19142FCD1194988471949E9
:1002200088471949884700BEFDE701C901C29A42C3
:10023000FBD37047AC6F0010C0000020A40A002060
:100240009079001000000420000004209079001034
:1002500000100420001004200000000070470B482C
:1002600002F01AFE0047EFF30580C0B270470000AD
:1002700008ED00E0000000D0A80A002030170020A0
:10028000691400100D0300104515001057560000AA
:1002900006005250ABB360534C650010060052503C
:1002A000861C03025C650010060052505422A29D79
:1002B0006465001005005250DE65F4689079001006
:1002C000F8B5C04610B5064C2378002B07D1054B76
:1002D000002B02D0044800E000BF0123237010BDB2
:1002E000A80B002000000000E8570010044B10B5D8
:1002F000002B03D00349044800E000BF10BDC046F6
:1003000000000000AC0B0020E8570010F0B5C64616
:1003100000B582B000F0D4F803F07CFE5C4803F036
:100320003DFE04F03DFD002803DB04239846002732
:100330007FE0584801F028F9002402E003F0F4FDC2
:1003400001340F2C09DC2B19534AD05C534B1B5C36
:1003500068229343F2D12E20F0E70A2003F0E4FD57
:10036000103580239B009D420FDA790249194C48D1
:1003700003F044FE00240F2CDEDC2B19464AD15C2E
:10038000484803F03BFE0134F5E78022424C9200DE
:10039000AA21200003F0E8FC434803F0FFFD0222FD
:1003A0000021200004F0D4FE0023019301A804F0F2
:1003B00033FE0028FAD001993C4803F01FFE364E68
:1003C00000272EE0002402E003F0AEFD01340F2CE4
:1003D00008DC2B19F05C314B1B5C68229343F3D192
:1003E0002E20F1E70A2003F09FFD103580239B00AB
:1003F0009D420EDA79024919294803F0FFFD0024D5
:100400000F2CDFDC2B19F15C264803F0F7FD0134DB
:10041000F6E70A2003F088FD80239B009C46664493
:100420000137012F01DC0025E0E701235B429C46F8
:10043000E0444346002B21DD1D4803F0AFFD41465B
:100440000C2002F055FD01001A4803F0D7FD40468C
:1004500004F048FA184803F0A1FD002004F0CEF99A
:1004600080220D4C9200AA21200003F07DFC022284
:100470000021200004F028FE002572E70F4803F059
:100480008DFD00BE002002B080BCB846F0BDC04665
:10049000E8570010F8570010DC0B00207D6E0010AC
:1004A000345800103C5800104458001050580010A8
:1004B000FC57001014580010245800105C5800100D
:1004C00010B582B000F07EF8002801D002B010BD57
:1004D000094C0094230001220121053001F06CF841
:1004E000064801F00FFC00942300002200210620A2
:1004F00001F062F8EAE7C046006CDC0200800240CE
:1005000010B58300084A944663441C684022624048
:10051000C02414408022520113431C60C000034BCE
:100520009C466044416010BD04C001400040014051
:1005300080000B4B9C46604400290DD00823002A04
:100540000CD004221343026853400C221340802233
:1005500052011043036070470023F0E70022F1E7E7
:1005600004C00140EFF3108072B6034B1B68002BF0
:10057000FBD0BFF35F8F70472C0100D0BFF35F8FBC
:10058000024B00221A6080F3108870472C0100D0C3
:10059000F8B506000C001500FFF7E4FFE308F718B4
:1005A000F15C07222240012393400B4205D1DBB2CC
:1005B0000B433B70FFF7E2FFF8BD2100280000F07D
:1005C000E3FF0000034B1B6802201840431E9841C4
:1005D000C0B2704700C0064000231F2B08D8054A50
:1005E0009A189200BFF35F8F002111600133F4E786
:1005F0007047C04640000034054A1078431CDBB207
:100600001370172B02D9130010221A707047C046BE
:10061000D809002070B504000D00062001F0CEF8C6
:10062000C000290002F08CFCC60908D00E4B9E4287
:1006300017D87F23184001303500460800E0012517
:100640006562A6622C34802080010443002323606D
:10065000062001F0B3F88000A901891902F070FCAE
:1006600070BD0026014DEBE7FEFF0000FFFF00001C
:10067000002909D00A22064B9C4660444342584157
:100680004000044BC252704780225200F3E7C0463C
:100690000080FCBF2015002070B505000C0006206E
:1006A00001F08CF8002829D0164B9D4227D08022DB
:1006B000D203154B1A60154B1A60154B9B6811003D
:1006C0009943FAD100212800FFF7D2FF210028002A
:1006D000FFF7A0FF2C002C34E96A60224A406E210B
:1006E000114080225201224311600A4B2B63802368
:1006F0009B01234310221A600323AB6470BD802248
:100700001204D6E70080034000E0004000F0004003
:1007100000C000400103000070B505000C00080097
:1007200000F07CFB200000F04DFC0849200000F0A8
:100730008DFBFFF761FF064B9C46604480006860BC
:100740002C75A400034BE55070BDC0462D0A001067
:1007500040000034E814002010B5002922D00368BE
:100760001B7B99421ED8174B9C4661440901836844
:100770009C4661440C684968002A19D003681B7BB9
:100780009A4215D883680F488446624412019A1829
:1007900010685368020001208B4201D80ED000205F
:1007A000C0B210BD084B094A3B21094800F0CEFEFB
:1007B000054B064A3B21064800F0C8FEA242EFD88E
:1007C000EDE7C046FFFFFF0FB0580010E45A0010DD
:1007D0007858001010B500291ED0037B99421BD811
:1007E0004B005B18033B0468A4466344002919D0FE
:1007F000002A1DD0914221D0002A25D0047BA2429C
:1008000022D80468500080180338201881701978A5
:1008100000291FD11A7010BD104B114A69211148CF
:1008200000F094FE104B114A70310E4800F08EFE1D
:100830000F4B0E4A71210B4800F088FE0D4B0B4AFE
:100840007221084800F082FE044B054A69210548E0
:1008500000F07CFE41701A70DDE7C046E4580010DD
:10086000A45A0010005900104C590010B05A001042
:10087000585900106459001070B506000D0014009E
:10088000002914D0002A14D0806873689847002883
:1008900006D0220029003000FFF79CFF280007E067
:1008A0002A0021003000FFF795FF200000E0100033
:1008B00070BD0800FCE70000F0B583B005000092B1
:1008C00001930AAB1C780BAB1F78002C26D0036871
:1008D0005A7B944207D10123002B19D1002C3BD124
:1008E000200003B0F0BD002C0CD01A7B944209D834
:1008F0001A6863001B19033BD3189B78002BEBD0BD
:100900000123E9E73E4B3F4A69213F4800F01EFEC4
:100910003E4B3F4A65213F4800F018FE03689C7B30
:10092000002CDBD012D01A7B94420FD8620012192F
:10093000033A19688C46624451789973002900D1B2
:10094000D9730023937053701370C7E72C4B2D4A53
:1009500069212D4800F0FAFD002C3AD02B681B7B52
:100960009C4236D82C4BE3181B01AA68944663447A
:10097000009A1A60019A5A60089A9A60099ADA6095
:100980002E68002C2BD030D0337B9C422DD86300B6
:100990001B19033B32689446634400229A705A70D4
:1009A0001A70717B22003000FFF766FF707384427B
:1009B00000D095E7287D009A019B00F08FFA061E73
:1009C00001D0002F17D00C9B002B00D188E71E70A0
:1009D00086E7124B124A3B210E4800F0B7FD114B3F
:1009E000114AA621084800F0B1FD054B054A6921CE
:1009F000054800F0ABFD2868210000F0B9FCE2E7F3
:100A0000E4580010A45A0010005900107C5900103E
:100A1000045B001078580010FFFFFF0FB058001063
:100A2000E45A001074580010C45A0010F0B5DE46A5
:100A300057464E464546E0B58BB0099000230893D3
:100A40008200B34BD658370052E0B24BB24A3D2138
:100A5000B24800F07BFDB24BB24A3B21B24800F0F5
:100A600075FD002901D1002869D10021404600F020
:100A700075FCA04219D12A686B6806920793AB688F
:100A80009846EB689A464346002B14D0002C18D0A9
:100A90003B681B7B9C4214D8631EFA68D35C0893A6
:100AA0001B0218433861002015E0A04BA04A8C219E
:100AB0009D4800F04BFD9F4B9D4A90219A4800F0C5
:100AC00045FD974B9C4A4021974800F03FFD00238D
:100AD0009A46984600207B68BFF35F8F00221A6019
:100AE00086F310884346002B32D1002800D107E15D
:100AF00000F0A0F902000B1EA7DB002000210690E9
:100B000007917868EFF3108672B601680029FCD06F
:100B1000BFF35F8F396888464C7B002CD7D09AD0C2
:100B2000097B8C4297D8854965182D01B9688C4698
:100B3000654428686968801A9941002991DD2A680E
:100B40006B68099800F0CAF900239A469846C2E7F4
:100B5000089B1B022343994651461800C0470500D5
:100B60000E007A68EFF3108B72B6136859424B414E
:100B7000D9B2002BF9D1BFF35F8F002E26DB002EF8
:100B800052DD3B69002B53D04B4572D100F052F936
:100B900002000B1E73DB01001800521973419842CA
:100BA00002D804D1914202D901225242D317002B1C
:100BB0006BDB0021049101310391029451460191B4
:100BC000414600913800FFF777FE49E03B69002B72
:100BD000D5D04B451CD1069A079B10001900521B1B
:100BE000B341994202D804D1904202D90122524223
:100BF000D317002B12DB00210491013103910294E1
:100C000051460191414600913800FFF755FE27E01B
:100C10004B4B474A9F21444800F098FC3D4B3E4ACD
:100C20003D213E4800F092FC002E01D1002DA8D1BC
:100C30003A68002C45D0537B9C422CD101210029DD
:100C40003FD1D37B002B42D1D473002C52D03B68D0
:100C50001B7B9C424ED8FA68013C135D013313554F
:100C600000233B617A68BFF35F8F13608BF31088BA
:100C70003EE7334B2E4AA2212B4800F067FC254B60
:100C8000254A3D21254800F061FC224B224A3D21A6
:100C9000224800F05BFC002C0DD0137B9C420AD84C
:100CA00063001B19033B1068844663449B78002B48
:100CB000C5D00121C3E7234B234A6921234800F013
:100CC00045FC234B234AF721204800F03FFC002B32
:100CD0000AD0117B8B4207D85900CB18033B11680F
:100CE0008C4663445C70AFE7164B174A692117487E
:100CF00000F02CFC0A4B104A40210B4800F026FC67
:100D00000BB0F0BCBB46B246A946A046F0BDC046FB
:100D1000E8140020A45900108C5A0010C05900108B
:100D2000B0580010E45A001078580010085A00100B
:100D30001C5B0010205A0010F05A0010FFFFFF0F3C
:100D40002C5A0010E4580010A45A0010005900104A
:100D5000685A0010D45A001010B50A4B5B68002B7B
:100D600004D00A21084800F04DF910BD054C2300BD
:100D7000064A1021206800F011FA03212000FFF735
:100D8000CBFCEEE7DC090020FC1400205907001022
:100D900070B5EFF305833F2018401038EFF310844F
:100DA00072B6194B1B68002BFBD0BFF35F8F01237A
:100DB00019008140154A5163154A12781500C54043
:100DC0002B4214D0114B5D6A8300124E9B599D42F9
:100DD00006D38300104D5B598A430D490A7007E022
:100DE0000A4A031D9B0099589950002300E00023F4
:100DF000BFF35F8F044A0021116084F31088002B39
:100E000000D0984770BDC046280100D00040054082
:100E10001C15002000150020CC0B002010B501008F
:100E2000024A0348FFF7B4FB10BDC046385B001010
:100E300018150020044B5B6A034A906A1900536A34
:100E40009942F9D17047C0460040054070B5040092
:100E50000D00EFF3108672B61B4B1B68002BFBD006
:100E6000BFF35F8F002D1CD0200000F01FFD174B3B
:100E700083420BD01900200000F020FD012120004A
:100E800000F00CFD0123A340114A1360A400114B94
:100E9000E550BFF35F8F0C4B00221A6086F3108879
:100EA00070BDA2000B4B0021D1500122A2400A4983
:100EB0000B7893430B700549200000F029FD0021B9
:100EC000200000F0EBFCE4E7280100D0910D0010B9
:100ED00038600540CC0B00201C150020F0B5DE4624
:100EE00000B584B00400150001921E000293FFF7C4
:100EF000A1FF03958E4202D84ED185424CD9EFF323
:100F0000108B72B6274B1B68002BFBD0BFF35F8F93
:100F1000254A17780125A540EBB23B431370234BBC
:100F20005D63221D92000199D150A20020490298D0
:100F300050501B6A2B4212D11C4B1B6C2B4208D009
:100F40000020BFF35F8F174B00221A608BF31088CD
:100F500023E0184B184AC121184800F0F7FAFFF7B0
:100F600069FF8E4214D802D1039B834210D80E4BE6
:100F70001B78BB420ED00D4B1D625D631F200440E9
:100F80000123A3400E4A1360074B1F701E38D8E799
:100F90000020D6E70120D4E7012004B080BCBB4686
:100FA000F0BDC046280100D01C15002000400540BF
:100FB000001500205C5B0010C45B0010805B00101B
:100FC00080E200E010B5EFF3108472B60A4B1B68A4
:100FD000002BFBD0BFF35F8F01238340074A1362CE
:100FE00007490A789A430A70BFF35F8F024B0022C9
:100FF0001A6084F3108810BD280100D0004005401D
:101000001C150020024B9C4661448900016070471A
:101010004000003470B504000D00FFF7EDFA010048
:101020002000FFF7EFFFFF2323716571BFF35F8F90
:1010300070BD10B50021FFF7EDFF10BD10B5FF2109
:10104000FFF7E8FF10BD000010B500291ED0037B9C
:1010500099421BD84B005B18033B0468A4466344C9
:10106000002919D0002A1DD0914221D0002A25D074
:10107000047BA24222D8046850008018033820184C
:101080008170197800291FD11A7010BD104B114AB8
:101090006921114800F05AFA104B114A70310E487C
:1010A00000F054FA0F4B0E4A71210B4800F04EFA33
:1010B0000D4B0B4A7221084800F048FA044B054AD0
:1010C0006921054800F042FA41701A70DDE7C04618
:1010D000E45800106C5D0010005900104C590010CD
:1010E000785D0010585900106459001070B5060062
:1010F0000D001400002914D0002A14D080687368F1
:101100009847002806D0220029003000FFF79CFFF6
:10111000280007E02A0021003000FFF795FF20009B
:1011200000E0100070BD0800FCE7000010B50023CF
:10113000437301338373037BC3730123027B9A429E
:1011400014D9002B0CD0027B934209D85A00D21834
:10115000033A01688C4662440133DBB25370EDE719
:101160000B4B0C4A69210C4800F0F0F9002A09D019
:10117000924207D8016853009A18033A8A1800234C
:10118000537010BD024B034A6921034800F0DEF999
:10119000E45800106C5D00100059001010B5017388
:1011A00042608360FFF7C2FF10BD000070B504000D
:1011B000081E00D170BD002934D0237B994231D85C
:1011C0004B005B18033B2268944663445A78002A1C
:1011D000F0D02DD0237B9A422AD853009B18033B92
:1011E00021688C4663445D7800215970002825D021
:1011F000237B984222D843001B18033B21688C466E
:1012000063440021597001002000FFF76FFF0600C2
:1012100029002000FFF7CAFF020031002000FFF77D
:1012200065FFC7E7084B094A6921094800F08EF9B4
:10123000054B064A6921064800F088F9024B034A2B
:101240006921034800F082F9E45800106C5D001039
:101250000059001070B505000C001600002928D0B8
:101260002DD0037B99422AD84B005B18033B0268C0
:10127000944663445A78002A27D19A78002A2AD1C2
:101280001978FFF793FF0300002E03D0EA7B002AB2
:1012900027D1EC73002B37D1002C49D02B7B9C42FB
:1012A00046D82B6861000C19033C1C19002363709D
:1012B00070BD224B224A3821224800F047F9224BC8
:1012C000224A6921224800F041F9224B1C4A3A2166
:1012D0001C4800F03BF9204B194A3B21194800F00B
:1012E00035F9002A0AD0297B8A4207D851008A188A
:1012F000033A29688C4662445470CAE7124B134A79
:101300006921134800F022F9002B0BD02A7B93426D
:1013100008D843001B18033B2A6894466344002204
:101320009A70B9E7084B094A6921094800F00EF99B
:10133000054B064A6921064800F008F9B85C001020
:101340008C5D0010C05C0010E45800106C5D001053
:1013500000590010F85C0010205D001070B504000A
:101360000A00457B2900FFF775FF6073280070BDF8
:1013700070B50400002966D0437B8B420ED0002953
:1013800011D0037B99420ED84B005B18033B0268D7
:10139000D0188378002B0CD1002055E00121FFF7F5
:1013A000DDFF012050E0294B294A6921294800F03E
:1013B000CDF8002B1FD0227B93421CD825685A0001
:1013C000D318033BEA18EB5C8B421AD0002B1BD0DE
:1013D000227B934218D85A00D318033B2268D218B4
:1013E00053788B4216D0002BF0D11B4B1B4A672140
:1013F0001B4800F0ABF8154B154A6921154800F061
:10140000A5F84378137007E0104B114A6921114881
:1014100000F09CF8437853700023837043700122DE
:101420002000FFF717FF0200617B814205D02000FA
:10143000FFF75CFE6073012006E00A4B074A6D214E
:10144000074800F083F8002070BDC046E458001043
:101450006C5D001000590010445D0010A05D00108C
:10146000C05C00104C5D001070B5264B264A1A6017
:10147000264B274A1A60274B9A68254B9343FAD18B
:10148000254C264B9C4202D208CC9847F9E700F045
:1014900015F91E4B224A1A601E4B9B68DB43DB0189
:1014A000FAD1204B40229A675A671A67DA661E4CB7
:1014B00003E02000FFF7BDFD08341C4B9C4206D220
:1014C0006379002BF5D02000FFF7B8FDF4E7184C46
:1014D000A168184DC022280002F04CFCA560FEF760
:1014E000C2FE002800D000BEFFF776F800F072FBC5
:1014F000FFF732FC104C01E008CC98470F4B9C42A0
:10150000FAD370BD00E00040BFCDFBFE00F000400C
:10151000FE7F3C0000C00040900A0020A00A00208E
:10152000FFFFFF0100F00140880A0020900A002020
:1015300000ED00E000000020A00A0020A40A002026
:1015400000BEFDE710B5FFF7FBFF000010B582B04D
:101550000C001900002A0CD0084B002A0BD0019275
:10156000009323000200064802F048FD0120FFF727
:10157000E7FF044BF1E7034AF1E7C046B85D00100E
:10158000C85D0010A86A00100FB400B583B0084809
:1015900002F004FD049B002B07D005A9019118005F
:1015A00002F00AFD034802F0F9FC0120FFF7C8FF32
:1015B000F85D001020580010F8B5DE4657464E463C
:1015C0004546E0B505000F0092461E000A9B9E426C
:1015D0004ED3330E994636020A9A0023300049460C
:1015E00001F0F0FC80466C006419A4002E4B9C4670
:1015F00064446368834200D260602B1FDBB29B4669
:10160000012B3BD9C0239B012343802212011A6086
:10161000AB00264A9958002905D0506901F090FC8A
:1016200001300138FDD153465A0123685A40E02366
:101630001A4080235B0123431A605A46012A28D9A5
:1016400080239B012343802212011A60434663607A
:10165000424600233000494601F0B4FCAD00134B74
:1016600058510120F0BCBB46B246A946A046F8BD81
:101670000F4B104A2D211048FFF768FF012FC1D1F1
:10168000C0239B01234303221A60A368DB07FCD518
:10169000C9E72168794003220A401A60A368012241
:1016A000BA401A42FAD0CBE700800040E40F002095
:1016B000085E0010605E00101C5E001030B583B044
:1016C0000C2000F023FBFEF77DFF00280DD0002347
:1016D000092B05D899002D4A2D4888500133F7E78A
:1016E0002A4B2C4A5A6203B030BD2B4B00229A671A
:1016F00000F014FB294B01221A60274B5B6C012B75
:10170000FBD1274B03221A60234B9B6B012BFBD190
:10171000022400940533234A0121234800F066FA8D
:1017200000940523214A0121214800F05FFA214B52
:101730000093002202210420FFF73EFF1E4D00957A
:101740002B00002201210520FFF736FF104C0094EA
:101750002300002200210720FFF72EFF0094230022
:10176000002200210820FFF727FF0A4B00932300E7
:10177000002200210920FFF71FFF00952B00002207
:1017800000210620FFF718FFADE7C046E40F002058
:10179000006CDC021BB70000008000403CB0004041
:1017A00030B00040002F68590080024000389C1C77
:1017B00000C00240001BB700405973078000014B76
:1017C000C0587047E40F0020074B9B681030800022
:1017D0001950BFF35F8FBFF35F8F044B0021196077
:1017E00082F310887047C04600ED00E0240100D06D
:1017F00010B5091A04394808090B05D14005400DF8
:10180000044B184380B210BD034B044A8C2104489A
:10181000FFF79CFE00E0FFFF705E001050600010BC
:10182000805E001010B5091A04394C08090B08D164
:101830004905490D064A11430180064B2343438065
:1018400010BD054B054A94210548FFF77FFEC046B1
:1018500000F0FFFF00F8FFFF705E00105C600010FA
:10186000805E001001238340034A10681840431E25
:101870009841C0B27047C04600E100E0002904D0A2
:10188000034B1860034B18607047034B1860FBE76D
:1018900080E200E000E100E080E100E010B501231B
:1018A00083401800FFF7EAFF10BD0000024B9B6861
:1018B00010308000C058704700ED00E070B50400A3
:1018C0000D00EFF3108672B60C4B1B68002BFBD09B
:1018D000BFF35F8F2000FFF7E9FF094B984201D06B
:1018E000A84205D1320029002000FFF76DFF70BD2E
:1018F000044B054A70210548FFF728FE240100D05B
:10190000CD010010C05E001034600010805E001039
:10191000F0B5CE46474680B583B006000D00EFF324
:10192000108872B6574B1B68002BFBD0BFF35F8F3C
:10193000554B9A6834001034A300D758534B9F423C
:1019400007D0AF4200D19BE00197514BFB1A2F2BE0
:1019500009D9424639003000FFF736FF03B0C0BC5A
:10196000B946B046F0BD3000FFF77CFF814600214C
:101970003000FFF793FFBFF35F8FFEF774FC002882
:1019800001D0844219D10123019C9C43230040498A
:101990005B1A5B4148495943090D49B20022A368CB
:1019A000AB4212D00622A256002A0DDB53009B1830
:1019B0009B002200364CE418F1E72021354B364AD3
:1019C000FF313648FFF7C2FD2200AB4251D1062558
:1019D0006557002D39DB6B005B199A002C4B9B1867
:1019E0009A68A260DA79E27106229A56A2719B790E
:1019F0005BB2002B10DABD200002A0806B005B19E7
:101A00009B00234AD318264A1178997115704946CC
:101A10003000FFF743FF9CE7201D6B005B199B0024
:101A20001B4A9B181A1D9B88D90A1C2907D15905E6
:101A30004915023149005118FFF7DAFEDDE7194B6D
:101A4000194A9A211548FFF781FD00280CD1002A78
:101A500008D0FF239371154B9380114B1A78A27114
:101A60001970D4E7094FF8E7201D1149FFF7DAFE96
:101A7000CDE7AA210F4B084A49000848FFF766FD49
:101A8000024F66E7240100D000ED00E0CD01001018
:101A9000040A0020D45F001084600010805E0010F3
:101AA00019150020BC5F00107460001000BDFFFF1E
:101AB0003E0A0020F85F0010AAAA000010B5032318
:101AC00004009C43064A9446644422681840C000BF
:101AD000FC3383409A43130081400B43236010BDC5
:101AE00000E400E0F8B50400012606432D4BF31A8C
:101AF0002F2B28D8FEF7B7FB00282BD0EFF3108749
:101B000072B6294B1B68002BFBD0BFF35F8F2300FD
:101B1000244D5B1B5B412E4D5D432D0D6DB2234B60
:101B20009B6880001B58B3421BD00022032A32D886
:101B300053009B189B001B49CB189B795BB2AB42AF
:101B40001FD00132F2E77221194B1A4AFF311A48AD
:101B5000FFF7FCFCBA21194B164A49001648FFF75B
:101B6000F5FC124B9B68164A1A50164B1A78A27154
:101B70001D70BFF35F8F0C4B00221A6087F3108833
:101B8000F8BD08005300991889004118FF268E718E
:101B90000D4A8A80E9E786210C4B064AFF31064848
:101BA000FFF7D4FC040A0020240100D000ED00E07F
:101BB0000060001098600010805E00102860001027
:101BC000CD0100101915002000BDFFFF445D00107D
:101BD000AAAA000010B500241F2C05D880212000DF
:101BE000FFF76CFF0134F7E710BD0000F0B5CE46FB
:101BF00000B504000E0091461F000C2001F0A0F972
:101C0000050043011B1A9901C91AC9000918890165
:101C1000484601F095F90200103A98235B009A4279
:101C200033D87B1E062B36D8069B013B062B32D8B9
:101C3000069B9F4235D34B461A09AA4237D33F042D
:101C4000069B1D032F432368002B36DB234B9C424E
:101C500041D080256D01224B1D60224B1D60224A20
:101C600092682B009343FAD12660A060221DC02306
:101C70009B01134321221A602268002AFCDAE760E4
:101C800008221A6080BCB946F0BD184B184A1621CC
:101C90001848FFF75BFC184B154A19211548FFF748
:101CA00055FC164B124A1F211248FFF74FFC144BEC
:101CB0000F4A22210F48FFF749FC22683F231340B7
:101CC000B342C3D1A3681B051B0D8342BED1E36899
:101CD000002FBBD1D6E78025AD01BCE700C0024094
:101CE00000E0004000F0004000C00040B460001080
:101CF00090610010D0600010106100105C61001055
:101D0000746100102D2343607047000080239B0006
:101D10000343014AD362704700800540064BAA2264
:101D200012011A602F22DA60044B054A1A60024B36
:101D30005B68002BFBDA7047004002400060024005
:101D400000B0FA00704710B5002802D00B6849684F
:101D5000984710BD010000200A681378303BDBB2C1
:101D6000092B08D883001B185B00501C08601078F2
:101D7000C0183038F0E77047F0B5DE4657464E469B
:101D80004546E0B583B093461F000C9B9A460D9CD8
:101D90000E9B99460F9B9B0703D0B8460F00060089
:101DA00022E00192A34688464E46B9460700B44257
:101DB00007D2551C4B4641462020B84701342A0023
:101DC000F5E73D004F465C46019B9B46B1464646C3
:101DD000B84637002E0007E0013C551C5346185DFD
:101DE00043463900B0472A00002CF5D135003E00AB
:101DF00047460F9B9B0707D4100003B0F0BCBB46BF
:101E0000B246A946A046F0BDB0464E46B9462F00A0
:101E10005D46531BB342EFD2541C4B464146202033
:101E2000B8472200F5E7F0B5CE46474680B585B005
:101E3000944698460C9D0D9C0EAB1B789946109AC3
:101E4000119B129EB7071BD4002B08D0F70706D5AD
:101E50004F46002F02D10C37374200D0013B94424D
:101E600008D21F2C06D830272F550134F7E730272A
:101E70002F550134F70703D59C4201D21F2CF6D908
:101E8000F70615D5770505D4002C03D0944224D04D
:101E90009C4222D00F9A102A2BD00F9A102A30D0B1
:101EA0000F9A022A35D01F2C02D830222A5501342D
:101EB0001F2C05D84A46002A31D02D222A5501343C
:101EC000039602930194009543466246FFF754FF40
:101ED00005B0C0BCB946B046F0BD621E012C06D0AC
:101EE0000F9F102F01D01400D4E7023CD2E714005A
:101EF000D0E7B206D1D41F2CCFD878222A5501348E
:101F0000D1E7B206CCD51F2CCAD858222A550134A5
:101F1000C9E71F2CC7D860322A550134C3E77207BE
:101F200003D52B222A550134CAE73207C8D520220F
:101F30002A550134C4E7F0B5DE4657464E464546BD
:101F4000E0B593B081468A46089209931CAB10CB4A
:101F50001B789B461E9D219B9846002C03D1102385
:101F600042469A4390468023DB0046461E40424646
:101F70001A4212D0002C22D000260EE03033D9B203
:101F8000771C0AAB99552900200000F0D9FFAC421C
:101F900016D31F2F14D83E0004002900200000F0A3
:101FA000CFFFCBB2092BE9D94246920605D5412194
:101FB000C918C9B20A39C9B2E2E76121F8E72700B6
:101FC00043460693209B05931F9B049303955B4612
:101FD000029301970AAB0093099B089A5146484621
:101FE000FFF721FF13B0F0BCBB46B246A946A0469E
:101FF000F0BDF0B5DE4657464E464546E0B595B0D5
:10200000089009910A920B931E9E1F9C20AB1B788F
:102010009B46229B9946239D269B9A463300234349
:1020200003D1103352469A4392468023DB00574631
:102030001F4052461A4219D0330023432DD00027A7
:1020400014E03033DAB27B1C98460CABDA554A46C2
:102050002B003000210000F0B5FFA5421FD819D099
:1020600043461F2B1BD8474606000C004A462B0050
:102070003000210000F0A6FFD3B2092BE1D952466F
:10208000920605D54122D218D2B20A3AD2B2DAE784
:102090006122F8E7B145E3D901E0002398465346B1
:1020A0000693259B0593249B04934B4603935B4621
:1020B0000293434601930CAB00930B9B0A9A099938
:1020C0000898FFF7B0FE15B0F0BCBB46B246A94673
:1020D000A046F0BDF0B5DE4657464E464546E0B553
:1020E00091B083468A460C9298461A9C08941B9D90
:1020F000099522002B002000290001F0F0F90028AA
:1021000000D0E5E001225242D34B2000290001F02B
:10211000E1F9002800D0DBE001225242CF4B200041
:10212000290001F0C1F9002800D0D1E000220023ED
:10213000089D2800099E310001F0B6F9002800D062
:10214000DDE008980999069007918023DB001E9A2C
:102150001A400D921E9A1A4201D106231C9306982A
:10216000079904000D000A000600024300D1CDE0EB
:10217000080D4005400DBA4CA44660440A03120BFA
:10218000B84B13431F0001F0BDF9B74AB74B01F03C
:1021900048F9B74AB74B01F01DF904000D000022C1
:1021A000B54B3000390001F00CF9B44AB44B01F0E2
:1021B00038F902000B002000290001F00BF901F0B2
:1021C000B9F9814601F09EF904000D00AD4AAE4B0D
:1021D00001F027F90022AD4B01F0FCF801F0AAF95B
:1021E0000600AB4AAB4B2000290001F01AF90400AD
:1021F0000D00300001F086F9A74AA84B01F011F953
:1022000002000B002000290001F0DBF804000D00A3
:1022100002000B0001F005F90A900B91A04BF31896
:1022200000261F0522002B002000290001F0D2F813
:102230000E900F9122002B0000208021C90501F093
:10224000C0F804000D000022964B0A980B9901F08B
:10225000CAF80022944B01F0BDF802000B000A9866
:102260000B9901F0C0F80022904B01F0B3F8020086
:102270000B000A980B9901F0B6F802000B00200041
:10228000290001F0A7F802000B000E980F9901F049
:10229000AAF80022734B01F09DF832003B0001F0D8
:1022A000C0F806000F0004000D00069A079B01F01D
:1022B00011F900282CD001235B429C46E144002206
:1022C000794B3000390001F08EF804000D001FE05A
:1022D0001E9B04931D9B03931C9B0293089A099BCE
:1022E0000092019343460C9A5146584600F0F8F884
:1022F00011B0F0BCBB46B246A946A046F0BD06955B
:1023000080231B069C46664407961EE700239946D9
:102310004B466333C62B1FD804261E9B1B0527D5AF
:102320002B00234310D0624A624B0698079901F0B4
:10233000C9F8002800D183E000225F4B0698079976
:1023400001F0B2F800287BD01C9B4B4506DD4A46C5
:10235000981A431E1C9303E00526DEE700231C9316
:102360008023DB001E9A1A431E9200260023994602
:102370001D9B9E426ED29F1B02231E9A1A400A92F8
:102380001E9A134202D0002E00D000274B46002B8D
:1023900007D022002B000698079901F024F8069038
:1023A0000791002200230898099901F07DF8002880
:1023B00000D085E0414B1E9A1340049303971C9B69
:1023C0000293069B079C0093019443460C9A514646
:1023D000584600F085F8002E00D189E71E9B9B0629
:1023E0007AD54525441C4346020051462800D8476B
:1023F0004B46DA179B18534005220592013E04967E
:10240000002203920A3202924A46D00F01900093B2
:102410004346220051465846FFF78DFD0A9B002B8C
:1024200000D165E702005F460C9E1D9D931BAB42E9
:1024300054D2541C434651462020B8472200F5E7A9
:102440001C9B002B94D00D9B002B91D01C9B013B1F
:102450001C938DE700278FE7FFFFEF7FFFFFEFFF64
:1024600001FCFFFF0000F03FFB799F501344D33F76
:10247000B3C8608B288AC63F0000F83F61436F6392
:10248000A787D23F71A379094F930A400000E03F2C
:102490001655B5BBB16B0240EF39FAFE422EE63F4E
:1024A000FF03000000002C40000024400000184002
:1024B0002D431CEBE2361A3F80842E41FFF7FFFFCD
:1024C000069C079D22002900802000068446614466
:1024D0000B00069207936DE7652583E7100007E779
:1024E000F0B5DE4657464E464546E0B595B00690F7
:1024F000079193469946209F1E9A1F9B1000190032
:1025000000F0EDFF002831D101225242BF4B1E984E
:102510001F9900F0C9FF002837D101225242BC4B5D
:102520001E981F9900F0D6FF00283DD10022B94B1C
:102530001E981F9900F0CEFF002850D10022B64B04
:102540001E981F9900F0B0FF002848D100220023F8
:102550001E981F9900F0A8FF002850D1002398462C
:10256000229B5B0500D4B6E0002458E0229B039335
:10257000219B029303230193A84B00934B465A4699
:1025800007990698FFF7F8FB0EE1229B0393219B26
:10259000029304230193A24B00934B465A4607999A
:1025A0000698FFF7E9FBFFE00423229A1A402299DC
:1025B0000B4210D09B4B002A0FD00422229903918A
:1025C00021990291019200934B465A460799069829
:1025D000FFF7D2FBE8E0944BEDE70322EEE7229B06
:1025E0000493219B039302971E9B1F9C00930194CD
:1025F0004B465A4607990698FFF76CFDD4E01E9AA1
:102600001F9B0020002100F0DCFE1E901F91012383
:102610009846A5E70CAB30221A55013F01341F2C18
:1026200001D8092FF6D81E981F9900F083FF0500E6
:1026300000F068FF02000B001E981F9900F0C1FE19
:10264000FA007A4B9B181A685B680A920B9300F0A9
:10265000E8FE0890099100F091FF060000F04EFF9F
:1026600002000B000898099900F0ABFE0890099150
:1026700000226F4B00F02EFF00282ED001363000D4
:1026800000F03CFF02000B000A980B9900F012FFCB
:10269000002801D001350026002F2CD1280000F0A1
:1026A00031FF02000B001E981F9900F08AFE060001
:1026B0000F0000225E4B00F0F7FE002842D10022FE
:1026C0005B4B3000390000F005FF00283AD1EB07E2
:1026D00038D5013536E0062746E70022544B0898E6
:1026E000099900F0E1FE0028D6D1002E01D0F307B1
:1026F000D2D50136D0E7AA461F2C11D8013F0A21B6
:10270000300000F01DFC651C30310CAB19550A215E
:10271000300000F015FC092E26D906002C00EBE74E
:10272000554604E00CAA302111551F0001341F2C1E
:1027300002D87B1E002FF5D11F2C03D80CAB2E2204
:102740001A5501341F2C14D80A21280000F0D0FBA0
:10275000661C30310CAB19550A21280000F0C8FB6B
:10276000051E05D03400EDE72B0055461C00DEE7C2
:1027700034000323229A1340012B1CD01F2C06D8AF
:102780004346002B32D00CAB2D221A550134229B2C
:102790000393219B029301940CAB00934B465A4642
:1027A00007990698FFF7E8FA15B0F0BCBB46B246A9
:1027B000A946A046F0BD219B002B13D04346002B19
:1027C00002D10C3313420FD0219B013B21931900FE
:1027D00003E00CAB30221A5501348C42CED21F2CB0
:1027E000F7D9CBE72199F8E72199F6E7229B5B0718
:1027F00004D50CAB2B221A550134C8E7229B1B07CA
:10280000C5D50CAB20221A550134C0E7FFFFEFFFFE
:10281000FFFFEF7F65CDCD4165CDCDC1A861001033
:10282000AC610010A06100109C6100109863001062
:102830000000E03FF0B5DE4657464E464546E0B55F
:1028400093B082468B4690461193002900D1ECE26A
:1028500000275546119B1878002800D1E8E225286A
:1028600009D07C1C43463A005946A847119B0133C6
:1028700011932700EEE70133119300241DE00B00B4
:10288000303BDBB2092B37D92A293AD000230A93EF
:10289000119B1A782E2A44D000239A46119A137855
:1028A000683BD9B2122900D980E08B00CB49CB58C4
:1028B0009F4601231C4301321192119A11780B009B
:1028C000203BD8B21028DAD88300C548C3589F46A9
:1028D00002231C4301321192EFE704231C4301320F
:1028E0001192EAE708231C4301321192E5E7102315
:1028F0001C4301321192E0E711A8FFF72BFA0A906E
:10290000C6E71C9B1A1D1C921868002804DB0A905D
:10291000119B01331193BBE702231C4343420A93EB
:10292000F6E78022D20014435A1C11925A78130001
:10293000303BDBB2092B04D92A2A07D000239A4660
:10294000ACE711A8FFF706FA8246A7E71C9B1A1D01
:102950001C921868002804DB8246119B01331193F6
:102960009CE70020F8E780235B002343511C119172
:1029700052786C2A01D01C0018E0C0239B001C4335
:102980000131119112E080232343511C119152789F
:10299000682A01D01C0009E0C0231C4301311191B9
:1029A00004E080235B001C4301321192119B1878D4
:1029B0000300253BDAB2532A00D92CE29300894A5E
:1029C000D3589F4680239B001C4301321192EDE7B0
:1029D00080235B001C4301321192E7E7782809D07D
:1029E000582838D06F2838D0622838D010239C431C
:1029F0000A2600E01026582833D0692803D064281E
:102A000001D00C229443630501D501229443692827
:102A10002AD0642828D0A30500D59FE0E30500D57F
:102A2000B8E0630600D4CAE01C9A111D1C9111681D
:102A3000FF220A4005940A9B04935346039302968F
:102A400000230193009243463A0059462800FFF7BD
:102A500072FA070027E01026CDE70826CBE702260A
:102A6000C9E720221443C8E7A30520D4E30550D4C6
:102A7000630666D51C9A111D1C911168FF220A403D
:102A8000D317D118594005940A9B049353460393D6
:102A90000296D20F0192009143463A00594628000F
:102AA000FFF749FA0700119B01331193D2E61C9BF3
:102AB000DA1D07218A43110008311C9111685368FF
:102AC0009C46DB170C930D930C9A0D9B100048400D
:102AD0000E90624653400F930E980F990C9A0D9BDF
:102AE000801A99410E900F9108940A9B07935346C0
:102AF00006930496002305936346DA0F0292009032
:102B0000019143463A0059462800FFF772FA070040
:102B1000C9E71C9A111D1C911268D317D11859408E
:102B200005940A9B0493534603930296D20F019295
:102B3000009143463A0059462800FFF7FCF9070088
:102B4000B1E7230605D51C9A111D1C910023D25E06
:102B500096E71C9A111D1C91126891E71C9BDA1DC7
:102B600007218A43110008311C9108940A9B07939E
:102B70005346069304960023059302931368546802
:102B80000093019443463A0059462800FFF731FA72
:102B9000070088E71C9A111D1C9105940A9B049359
:102BA0005346039302960023019313680093434610
:102BB0003A0059462800FFF7BEF9070073E72306DD
:102BC00006D51C9A111D1C9112681204120C31E7D3
:102BD0001C9A111D1C9112682CE7C046B4610010AC
:102BE000006200104462001046281AD01C9B073374
:102BF000072293431A0008321C9204940A9A039203
:102C0000524602925C681B680093019443463A0066
:102C100059462800FFF764FC0700119B013311930C
:102C200018E620231C43E1E7672801D0472802D19A
:102C300080231B011C43452801D0472801D12023B4
:102C40001C431C9B0733072293431A0008321C9233
:102C500004940A9A0392524602925C681B6800939D
:102C6000019443463A0059462800FFF733FA07001B
:102C7000119B01331193EDE502231A002240924685
:102C800023421FD001241C9B1A1D1C927A1C9146C2
:102C9000187843463A005946A8475346002B16D1A8
:102CA000119B013311934F46D4E5561C43465946B8
:102CB0002020B847230032005C1C9D42F5D83D001F
:102CC0001700E0E701233A002F000A9DF4E74A4687
:102CD000A9460A9D06E0571C434659462020C8478E
:102CE00034003A00661CA542F5D84D469146D7E718
:102CF0001C9B1A1D1C921B6899465346002B00D141
:102D0000013B4E4601E0013613003278002A02D022
:102D10005A1E002BF7D14B46F21A10928023DB008B
:102D200026001E401C4203D0524501D95346109341
:102D300002231A0022400B92234205D03A003700AA
:102D40004C46A946554620E03A00109B5F46B346E4
:102D50002E0006E0551C434639002020B0472300D2
:102D60002A005C1C0A999942F4D835005E46BB469D
:102D7000109437004C46A946554606E01D00013424
:102D8000561C43465946C84732002078002804D0D4
:102D9000002FF4D06B1E002DF0D117004D460B9B79
:102DA000002B03D1119B0133119353E50A9F109B14
:102DB00006E0561C434659462020A847230032000F
:102DC0005C1C9F42F5D81700ECE721231C431C9B99
:102DD0001A1D1C921B680093059408230493534604
:102DE0000393102302930023019343463A0059466C
:102DF0002800FFF7A0F80700119B0133119329E584
:102E00007C1C43463A0059462520A847119B0133B4
:102E1000119327001EE57C1C43463A005946A847FB
:102E2000119B01331193270014E50B4B9A460FE5D4
:102E3000AA4647450DD343465A1E434659460020ED
:102E4000D047380013B0F0BCBB46B246A946A046F6
:102E5000F0BD3A00F1E7C046451D001000B585B051
:102E6000029003910121009313004A4202A90248F3
:102E7000FFF7E0FC05B000BD471D0010014804212C
:102E8000014B1847500A0020B92E0010014B9B68D7
:102E900018470000500A002010B5010018231B88B5
:102EA00014221088984710BD10B5010018231B8804
:102EB00016221088984710BDF0B5C64600B5070029
:102EC0000E0000250123984600E00135B5420AD2E4
:102ED000AC003C192068FFF7DFFF20600028F4D128
:102EE00000239846F1E7404680BCB846F0BD00009C
:102EF000124A936F9B0815D29066D166002905D0BF
:102F0000FFE7FFE7FFE7516F106F704704B58021BF
:102F10000906C2175140002800D0C84302F03CFC0B
:102F2000002104BDF0B5146E556E576F166FFFF794
:102F3000E3FF1466556657671667F0BD000000D0C2
:102F4000114A936F9B0813D210665166002905D071
:102F5000FFE7FFE7FFE7516F106F704704B50028E8
:102F600001D00020C04302F017FC002104BDC04680
:102F7000F0B5146E556E576F166FFFF7E5FF1466C8
:102F8000556657671667F0BD000000D094464E4A5C
:102F9000926F9208624601D230E0C046F0B54A4EC8
:102FA000B56F6D08FCD3346E756E776F366F00F0B9
:102FB00025F89446444A1466556657671667624674
:102FC000F0BDC0469446404A926F9208624601D2D4
:102FD00058E0C046F0B53C4EB56F6D08FCD3346E7A
:102FE000756E776F366F00F04DF89446364A14666A
:102FF0005566576716676246F0BDC046002B24DB56
:1030000011D000293EDA00B5C943404200D1013158
:1030100000F038F8C943404200D10131DB4352424D
:1030200000D1013300BD002AEBD1002801D10029D5
:1030300005D00020C90FC90701D1C043410800B520
:1030400002F09AFB0022002300BD00B500290ADB34
:10305000DB43524200D1013300F014F8C94340422F
:1030600000D1013100BDC943404200D10131DB43F1
:10307000524200D1013300F005F8DB43524200D147
:10308000013300BD002923D1002B18D1002A0CD018
:10309000BC460D4F38667A6600210023FFE7FFE744
:1030A000FFE77A6F386F67467047002801D00748FE
:1030B000010000B502F060FB0022002300BD020009
:1030C0000B00002000217047000000D0FFFFFFFF31
:1030D000002B00D0BDE0130C26D1002AE7D080B42D
:1030E000104F39667A66FFE7FFE730B4040C7B6F58
:1030F000396F1B0423433B66FFE7FFE7FFE7C0464A
:1031000084B27B6F3D6F1B0423433B66FFE7FFE701
:10311000C04600232C042D0C7A6F386F00196941CA
:10312000B0BC7047000000D0F0B594460025140EE6
:1031300001D112020835140F01D112010435940F88
:1031400001D192000235D40F01D152000135D40BC8
:103150000134254F7C66254C3C660E0C93B2FFE78C
:10316000FFE7FFE73C6F6643360C7703BE467343C9
:10317000DF0B5B04C01AB941130C7343DB18C91A87
:10318000CE086643360CB64493B273431F0F1B013F
:10319000C01AB941130C73431F0B1B05C01AB94168
:1031A000860D8F023E436643360C092D24DB520AFE
:1031B0007243801A7703460A6643360C16235B1B5C
:1031C000DE40DF40BF1964466643821B704604350B
:1031D00006330100D940A840C01900D30131A242F2
:1031E00006D20023F0BD0000000000D0FFFFFFFF6B
:1031F000121B0130F3D3F1E709277F1BFE40644621
:10320000A2B27243801A00D20139220C7243130C0D
:103210001204821A99410B007046043513370100DD
:10322000F940A840801900D30131002B02D1A242FD
:103230000AD2F0BD013000D30131121BFAD2013B9A
:10324000F8D1A24200D2F0BD013000D30131121BEF
:10325000F7E7F0B51C0C00D080E00CB400251C0A88
:1032600004D11B02160E3343120208351C0B04D185
:103270001B01160F3343120104359C0B04D19B0034
:10328000960F334392000235DC0B02D192185B415A
:1032900001351C00971864410134464F7C66464C4A
:1032A0003C660E0CFFE7FFE7FFE7C0463C6F664356
:1032B000360C7703BE4697B27743C01B00D2013964
:1032C000C01B00D201399FB27743C91BC91B170C21
:1032D00077437E04FF0B801BB941CE086643360C52
:1032E0000C2D33DBB644120B1F053A431B0B97B270
:1032F0007743C01B00D201399FB27743C91B170C1B
:1033000077433E043F0C801BB941860D8F023E433C
:10331000664329277F1BFE400C3D7746AF40BF190F
:1033200030BCA2B2ABB272437343801A9941220CF3
:103330007243130C1204801A994102000B000137EA
:10334000001BA941F9D2781E0021F0BD0C277F1B7C
:10335000FE4077467F0BAF40FF19E0E700245D1C7D
:1033600007D0144F7D663966FFE7FFE7FFE7FFE709
:103370003C6F95B29EB265436643401BB141150C4C
:103380001E0C6543664336042F0C3E432D04401B40
:10339000B141994204D202000B0020000021F0BD8F
:1033A00001D19042F7D3801A994101349942F2D366
:1033B000F6E70000000000D0FFFFFFFF484041405B
:1033C000484018B41B4B5B68FC46019308BD04DF02
:1033D0008336001018B4174B1B68FC46019308BDD8
:1033E00000DF8D3600109446134A926F920809D27E
:1033F000624618B40F4BDB68FC46019308BD0CDF36
:10340000453900100C4AF0B5146E556E576F166FA3
:103410006246FFF7EEFF084A14665566576716675F
:10342000F0BD18B4034B9B68FC46019308BD08DF50
:10343000E937001024150020000000D0FFB55040EF
:103440004240504059404B40594000E0FFB5154FB5
:103450004C00640D03D0BC4204D10C0314D80020EE
:10346000090D09055C00640D03D0BC4204D11C03A6
:103470000AD800221B0D1B0501264B4009D44B40E6
:1034800003D58B4200D18242FFBD9942FCD19042CC
:10349000FFBD0B43DB1803431343F5D0C943491861
:1034A000FFBD0000FF07000000B5FFF7CFFF804120
:1034B00000BDC04600B5FFF7C9FF01D9002000BD1F
:1034C000012000BD00B5FFF7B9FF01D9002000BD04
:1034D000012000BD00B5FFF7B1FF804100BD012014
:1034E00040054A00121804D85A00121801D80020CA
:1034F000704701207047002070470000002100281D
:1035000005D17047C1174840401AFAD0C90713B512
:10351000064B1B6898470CBC441CA2401005120BBC
:103520000349091B09051943114310BD2417002045
:103530001F04000010B54C00620D8023D218DB0080
:10354000D21A5B057E2A10DD9E3A13DACC170903E6
:10355000490819435242D140640001341532202AEF
:1035600005DAD0400843604310BD002010BD084676
:10357000604310BDC80FC018013810BD18B4044B0B
:103580005B6AFC46019308BD24DF713B001000001C
:103590002415002070B513231C78012C07D0012CB2
:1035A0000EDC022C02DC1C4A1C4B9A6470BD00230A
:1035B0001F2BF4D899001848184A88500133F7E7B0
:1035C0001748FFF771FC05001648FFF76DFC02383D
:1035D00003789B007F2B19DD802229000F4800F023
:1035E000C9FB022CDDD1104B1A88B5231B029A426D
:1035F00009D10E4B1A880E4B9A4204D10D4B1A88F2
:103600000D4B9A42CDD00020FDF7BEFF0B4B0C4A6C
:1036100030210C48FDF79AFF493600102415002090
:10362000534400005346000054380000D8380000CE
:10363000494600009C38000059460000E86300102D
:10364000906400104864001007B56046002800D15F
:1036500000BE01880A0A0230DF2AFAD1C9B2820804
:1036600004D3028840880004104300E00068024A46
:103670005050039007BD0000241500200FB403BC78
:103680000CBCF0B50124E407634000E0F0B50C0D7C
:10369000CF0F661E3605891B640503D3C94340421C
:1036A00000D30131640D03D0661CF60A07D0E41B79
:1036B00000207F00791C89078912803C24031D0D9E
:1036C000DF0F6E1E36059B1B6D0503D3DB43524295
:1036D00000D301336D0D03D06E1CF60A07D0ED1B2D
:1036E00000227F007B1C9B079B12803D2D032F1B1C
:1036F000661B58D4A446202E46DA20371400BC405E
:103700001D00BD40F24033412A4380185941CB0F80
:1037100005D0C943C0430022644250415141624632
:103720004D0D28D10D0D07D100281FD0241940417F
:103730004941013A0D0DF9D0640006D3013000D3A0
:103740000131002C01D140084000013A0BD4941CF7
:10375000E40A04D112051144DB071944F0BDD9076E
:10376000204B194300E0D9070020F0BD0029DDD12E
:10377000002CDBD1F0BD0132C6074008CD0728433D
:103780004908002EE1D0D9E73C2E29DA203E403707
:103790001400BC4000D00124F24014431A00BB4086
:1037A0001C43D317ACE7AC46202F08DA20360400C0
:1037B000B4400D00B540F84039412843A5E73C2FFF
:1037C0000CDA203F40360400B44000D00124F84019
:1037D00004430800B1400C43C117EAE71000190088
:1037E000002494E70000F07FF0B50C0D661E36054E
:1037F000891BE60A6405640D02D0651CED0A04D03D
:10380000002001210905803C2403A4461C0D671EED
:103810003F05DB1BE70A6405640D02D0651CED0A59
:1038200004D0002201231B05803C2403774064441C
:1038300097B484B296B27443070C7E43150C6F4361
:1038400080B26843361802D3012000043F183004C8
:10385000350C00197D41844688B29AB250430C0C55
:1038600062431F0C7C438EB27E43921902D3012621
:103870003604A4191604170C3618674101BC81B22E
:103880009AB25143040C62431B0C5C4380B2584310
:10389000121802D30120000424181004130C40183D
:1038A00063412D185E410020474106BC88B293B2A7
:1038B00058430C0C6343120C544389B251435B18B8
:1038C00002D301210904641819041A0C0918624171
:1038D0006D1856410020474118BCF902720D114382
:1038E000F0026A0D1043ED020A0D03D16D1940413B
:1038F0004941013B124E9B1B7600B3420ED26D0034
:1039000007D30130002671416646354301D1400896
:1039100040001B05C918E4072144F0BD0BDA013350
:1039200006D1013004D101314F0D01D04908F2E731
:10393000E1070020F0BD013631050020EBE7000073
:10394000FF030000F0B51C0D671E3F05DB1BE70AF7
:103950006405640D02D0661CF60A04D0002201231F
:103960001B05803C2403D0252D060026F6432E6639
:103970001E096E66CE0FF619B44649004F0D02D0EF
:103980007E1CF60A03D000200021403F3F033E1B6F
:10399000B600B444013F7F05C91B49082E6F0136AC
:1039A00076089C02950D25437543ED137543AD13C1
:1039B00001356D10F603761B0CB4CC02450D2C437B
:1039C000A2B2B3B25A43270C7B43350C6F43A4B267
:1039D0006C431B1902D3012424043F191C041D0C41
:1039E000A4187D4124196D41009A91B2ACB2614393
:1039F000170C7C432B0C5F4392B25A43A41802D39A
:103A000001221204BF182204230C52187B41019C8E
:103A10006C431B19520ED9010A434401A01A81B20A
:103A2000B2B2514303145A43360C734387B27743FF
:103A3000D617D21900277E4136049B191704160C9D
:103A40007F185E417316ED18F3010026803375412F
:103A5000A90F06D16400690AE8055B0A184309D278
:103A60002FE00422944480337541A90AA8059B0ADB
:103A7000184326D3404149412404009A019B0D007C
:103A80005543641B4343E41A95B286B27543170C41
:103A90007E43030C5F4392B25A43B61802D301220D
:103AA0001204BF183204330C52197B4152429C411C
:103AB000002C02D40022013051414008CA071043B3
:103AC000490802B06246D7079210084BD218084B3B
:103AD0009A4203D212058918C919F0BD0020002AA4
:103AE00001DC3900F0BD01331905F5E7FD030000E5
:103AF000FE070000624618CA944600291ADAC01868
:103B000061415B463B415C46B4405246FA40224329
:103B100044464D4662416B41904699462B46B34020
:103B20003D41FC401C4352465B46A241AB4192469C
:103B30009B467047C01AA1414B463B414C46B4409E
:103B40004246FA40224354465D4662416B419246EA
:103B50009B462B46B3403D41FC401C4342464B46EE
:103B6000A241AB4190469946704700200021704722
:103B7000002200B5203200F004F8080000BD00006B
:103B800000220B15F1D410B5944600F02FF8141450
:103B9000013400DA0021CB17134C20476244343A39
:103BA0000CD40C2A07DA0400914090405242203293
:103BB000D440214310BDD843D94310BD203207D48F
:103BC0000C469440524220321141D040204310BD57
:103BD0000800C917203203D452422032104110BDD0
:103BE0001800190010BD00009D3B00100A0DCC0FFD
:103BF000531E1B05C91A520503D3C943404200D3C3
:103C00000131520D03D0531CDB0A07D0121B0020D8
:103C10006400611C89078912803A1203014BD21A91
:103C200070470000FF03000070B513231D782A4879
:103C3000FFF73AF90400012D11D0012D09DDA31E73
:103C40001B789B007F2B40DD80222100234800F061
:103C500091F82348FFF720F9224B186070BD5422D9
:103C600001001E4800F086F81F4B1A881F4B9A422D
:103C70001CD1A7239B011A881D4B9A4216D11D4BBC
:103C80001A881D4B9A4211D11C4B1A8894239B0110
:103C90009A420BD11A4B1A881A4B9A4206D11A4BE8
:103CA0001A681A4B9A4201D1152307E01848FDF70C
:103CB0006BFC99001748094A885001331F2BF8D92B
:103CC000144A064B1A62DA61B7E7134B134A4221D2
:103CD0001348FDF73BFCC046534600002416002065
:103CE0004C33000024170020EE290000C40F000010
:103CF000C20D0000962B0000C0B50000182B00007C
:103D0000CC2A000010B50000FC2C000051ED8764A7
:103D1000A86A0010253D0010A46400102065001062
:103D2000D864001007B56046002800D100BE0188A5
:103D30000A0A0230DF2AFAD1C9B2820804D3028803
:103D400040880004104300E00068024A505003908D
:103D500007BD00002416002001480421014B18472C
:103D6000600A0020B92E0010014B1B6818470000A4
:103D7000600A0020014B5B6818470000600A0020C1
:103D8000F8B507000D001600437C002B02D000247C
:103D900000200CE003681100280098472DE03B7CD0
:103DA00010E0022115483B689847601C0134B4427A
:103DB00014DA002CF3DD2B19013B1B780D3B5A4222
:103DC0005341DBB22A5D0A2AF0D1002BEED1A0428A
:103DD000E7DA211A28183B689847E2E7B04203DA8D
:103DE000311A28183B689847002E06DDAD19013DB1
:103DF0002B780D3B5A4253413B74F8BD946500103B
:103E000070B505000368002B16D00C4B1C6805E04C
:103E1000290004C92000FFF7B3FFE468002C09D093
:103E20002368002BF9D0064B1B68002BF0D0A3426F
:103E3000F3D1EDE700232B6070BDC0466013002076
:103E40006413002070B505000C000B68802B05D0B2
:103E500021684B1C23606418257170BD0800FFF7B2
:103E6000CFFFF5E710B582B0D0231B0600241C5706
:103E700001A9074801F098FC002806D1019B9C424B
:103E800003D0034801F0A8FC012002B010BDC046D9
:103E9000880A002010B5024801F066FC10BDC0463B
:103EA000880A0020F0B5C64600B582B006000D00B5
:103EB0001700FFF7D7FF80466B1C02D0184B1C6819
:103EC0000DE0300001F01EFC0500F7E76B46D91D40
:103ED0000A230B7001222000FFF752FFE468002C38
:103EE00010D02368002BF9D00E4B1B68002B01D09B
:103EF000A342F3D12A0031002000FFF741FF002F39
:103F0000ECD0E3E74346002B06D1681E8541E8B2BA
:103F100002B080BCB846F0BDFFF7BCFFF5E7C04675
:103F2000601300206413002010B582B004006B46BB
:103F3000D81D047000220121FFF7B4FF200002B059
:103F400010BD00000C4B1A681300002B0BD08342ED
:103F500002D01A00DB68F8E7002903D1DB68D360E0
:103F60000023C36070470029FCD0002A01D0D06034
:103F7000F8E7014B1860F5E76013002010B5064B19
:103F80001C6800E0E468002C04D06368002BF9D0C2
:103F90009847F7E710BDC0466013002070B50500D4
:103FA00001F0B0FB0400012201002800FFF77AFFB6
:103FB000FFF7E4FF200070BD70B5A2B004000E0052
:103FC000FFF750FF05008422002101A8FFF7CCFE77
:103FD0003300220001A90848FEF740FF040001A8B1
:103FE000FFF70EFFFFF7CAFF002D02D1200022B01D
:103FF00070BDFFF74FFFF9E7453E00100FB400B565
:1040000083B004A901C90191FFF7D6FF03B008BC32
:1040100004B0184710B500F083F810BDF0B583B0B8
:1040200000251AE06B4607330D241C70002403E0C2
:104030001F78176001340133002C1CD19769BF062B
:10404000FCD4F5E71E78166001340133002C03D14F
:104050009669B606FCD4F5E701358D4210DA094BB6
:104060001A68465D084BD3185C4263415B00074CFD
:104070001B5FB342D6D06B4607331E700024E5E7C2
:1040800003B0F0BD101500200080FCBF20150020FB
:10409000F0B583B0070000200DE09369DB06FCD487
:1040A00013682B7001340135002CF6D06B460733B2
:1040B0001B780370300088420CDA094B1A68936948
:1040C00010252C001C401D4204D1461C38186B469C
:1040D000DD1DE9E7002801D003B0F0BD0338FBE7A0
:1040E0001015002070B515001C000B4B1860FCF774
:1040F000D3FA002D06DA002C09DA01210748FFF770
:1041000021FF70BD02212800FCF7FAF9F3E7022134
:104110002000FCF7F5F9F0E710150020700A0020E8
:1041200010B5064B1B78064B1B78E12101230022BA
:1041300049020448FFF7D6FF10BDC0469C6F00102F
:10414000A06F00100040034070B5D200022836D0A6
:104150003C4C2478022C45D0561E0C1D80256D0247
:10416000AE4267D290252D0335430D60002B12D04F
:10417000354B1D6841000B18DB00EB18CC331E6873
:10418000324B3340F42636021E430918C900691821
:104190000B00CC331E60D30607D052421F231340BE
:1041A000211D2B4A1A4322600C00022848D000230C
:1041B0001A00201DE023DB021343236070BD1F247F
:1041C000144206D11F4C2478022C09D01024121955
:1041D000BEE7B7211F4B204A89002048FDF7B6F9FA
:1041E0003E34F4E70128B7D09508013D0C1D802628
:1041F0007602B54218D29026360335430D60002B67
:10420000C9D0114B196845002B18DB00CB18CC33F3
:104210001B680E4E1E40D8231B0233432D18ED00A1
:104220004919CC310B60B6E70D4B0E4A29210B48DA
:10423000FDF78CF90A4B0B4A29210848FDF786F94E
:104240000223B5E716150020840A00207F00FEFF38
:1042500060400700D8650010506C0010EC6500103D
:1042600030660010D06B0010F0B5C64600B506AC45
:1042700080CC267809AC2478A0462B4C08252C430A
:10428000073D2C4302282CD80C25AC43800020434A
:1042900000292CD010210843002A2BD020221043C3
:1042A0003F2B2AD8214A1040DB0318430C2F2AD871
:1042B0001F4B1840FF023843089B1F2B29D81D4B6A
:1042C0001840089B9B011843002E28D08023DB0058
:1042D00018434346002B24D00123184380BCB84622
:1042E000F0BD154B154ACA211548FDF72FF91021CD
:1042F0008843D1E720229043D2E7124B124AAE21E5
:104300000F48FDF723F9114B114ABC210C48FDF76A
:104310001DF9104B104ADE210948FDF717F900235B
:10432000D6E701239843D9E710801F00FF7FE0FF05
:10433000FF87FFFF3FF8FFFF40660010906B001003
:1043400084660010D46600105C6B0010E8660010F4
:10435000746B001008670010B86B00100C4AC02383
:104360005B01134308221343073A134310221343FC
:1043700010321343074A13408822120313430C22BE
:104380009343054A1361054B054A1A607047C046BE
:1043900010801F00FF7FE0FFC0000050D0000050E1
:1043A00031980800F0B5CE46474680B587B0060084
:1043B0000D0090461F00794B1A68511C1960784B0C
:1043C0001B689C682402230A9946002C1FD1744B59
:1043D0001C680023626892012CD40133714A934215
:1043E000F8DD6E4B1A68511C19606D4B1B689B6899
:1043F0001B021A0A9146002B12D1EC23E25801212C
:104400006948FFF7FBFD00BE0124644213E0674AE0
:104410006748FFF7F3FD624B1B684A469A60D6E790
:104420001300644A6248FFF7E9FD5D4B1B684A468A
:104430009A60E2E70024002C19D0002C11D1584AD0
:1044400011680B68022083430B6013685A4A5A6153
:104450005E615D61002F45D11A6802218A430A43DB
:104460001A60200007B0C0BCB946B046F0BD4B4B47
:104470001A68511C19604A4B1B689B681B021A0A78
:104480009146002B21D1474B013B002B05D0444ADC
:104490001168EC228A58022AF6D1002B1FD03F4B1C
:1044A0001A68511C19603E4B1B689B681B021A0A54
:1044B0009146002BC1D01300404A3D48FFF79EFDB6
:1044C000374B1B684A469A60B7E713003C4A3848A6
:1044D000FFF794FD324B1B684A469A60D3E70124EC
:1044E0006442AAE7012305930493039300230293F4
:1044F000019300933B0042460121093001F064F929
:10450000051EAED1360E3F20304043461F687E0860
:104510005C686408FA07144302283DD029280FD1AB
:10452000284B3340C1221206944663445E427341D5
:10453000DBB2240CFF2C29D1002B27D02C0090E7D4
:104540007B0E9846834219D11F4B4246995C7A0CE8
:10455000D2B24A409A5C7F0AFFB25740DA5DF6B2A7
:104560005640995D220E4A40995C01231943C9B215
:10457000240CE3B2994205D12C0072E71348FFF7EF
:104580000DFDE1E7E2B21248FCF7FEFF1148FFF72C
:1045900005FD0224644264E72C0062E70C10002051
:1045A000840A002040420F00BC67001064680010BD
:1045B0003C670010B46700102F0003006C68001007
:1045C0006868001000001EFFA06C001070680010EA
:1045D000746800108C68001070B57D4B1A68511C0F
:1045E00019607C4B1B689B681B021C0A002B1FD1A7
:1045F000784B1C680023626852012BD40133764A41
:104600009342F8DD724B1A68511C1960714B1B689C
:104610009B681B021D0A002B13D182235B00E2580A
:1046200002216E48FFF7EAFC00BE0124644212E05A
:1046300023006B4A6B48FFF7E1FC664B1B689C60EC
:10464000D6E72B00684A6748FFF7D8FC614B1B6828
:104650009D60E2E70024002C03D0002C39D020001C
:1046600070BD5B4B1A68511C19605A4B1B689B68E4
:104670001B021D0A002B20D1574B013B002B06D0FB
:10468000544A1168822252008A58022AF5D1002B1E
:104690001CD04F4B1A68511C19604E4B1B689B680D
:1046A0001B021D0A002BD8D02B00504A4D48FFF7A3
:1046B000A5FC484B1B689D60CFE72B004C4A49483E
:1046C000FFF79CFC434B1B689D60D5E701246442C7
:1046D000C3E7404B1B68474A9A61474A9A61E02208
:1046E000D2029A613A4A1168013111609B681B023B
:1046F0001D0A002B4ED1374B1D6823006A685201FA
:1047000018D40133344A9342F8DD314B1A68511CF6
:104710001960304B1B689B681B021C0A002B42D19E
:1047200082235B00EA5802212C48FFF767FC00BE99
:1047300001246442002C00D091E7254B1A68511CDB
:104740001960244B1B689B681B021D0A002B33D188
:10475000214B013B002B06D01E4A116882225200D9
:104760008A58022AF5D1002B2FD0194B1A68511CF8
:104770001960184B1B689B681B021D0A002B00D197
:104780006DE72B00194A1748FFF738FC114B1B68DF
:104790009D6064E72B00124A1248FFF72FFC0D4B77
:1047A0001B689D60A7E723000F4A0E48FFF726FC11
:1047B000084B1B689C60B3E72B000D4A0948FFF7C4
:1047C0001DFC044B1B689D60C2E70124644246E760
:1047D0000C100020840A002040420F00BC6700102B
:1047E000646800103C670010B46700106C6800102B
:1047F0006868001080E00700A020070070B586B050
:10480000041E0FD004213048FFF7F8FB2F4B1B7814
:10481000002B0BD0002C07D00122934206D00020A1
:1048200006B070BD0121EEE70222F6E7002C03D0AE
:10483000274B1B78002B39D0264B1E78264B1D7832
:1048400020235B427340DBB2244AD35C6B40D35CD1
:10485000D35CD35C01211943EE20C0013043000238
:10486000284309040002062301AAFFF79BFD002844
:1048700014D1002C20D002227A235B425340DBB2B9
:104880001649C95C1202114309048C2080235B0283
:104890001943062301AAC005FFF784FD00280FD1A4
:1048A000002C0BD00222094B1A70B9E70C48FFF715
:1048B00075FB04204042B3E70022DDE70122F2E766
:1048C000024B00221A70ABE7A468001016150020F6
:1048D000151500201A1500201B150020A06C0010D3
:1048E000B8680010074B1B680004C82298501832A3
:1048F0009850183298501968E022D2000A431A6082
:1049000000207047840A0020F0B5DE4657464E4628
:104910004546E0B59DB00500F04B1B78F04B0022FA
:104920001A70F04C1323236007211720FBF7E8FDD2
:1049300007211820FBF7E4FD07212068FBF7E0FDC5
:10494000012200211720FBF7F3FD0022012118208E
:10495000FBF7EEFD002201212068FBF7E9FDE24BA9
:104960001D702368581C0721FBF7CAFD2368981C9B
:104970000721FBF7C5FD2368D81C0721FBF7C0FD05
:104980002368581C00220121FBF7D2FD2368981CE4
:1049900000220121FBF7CCFD206803300022012119
:1049A000FBF7C6FDD14B1B78002B13D1D04B1868F9
:1049B000D04900F0FFFDD04B1860002800D0C5E1C1
:1049C000CB4B1868CD4900F0F5FDCD4B1860C74BB7
:1049D00001221A70CA4B1B689C4607AD80235B02FC
:1049E00098460793F8235B020893C0273F03099773
:1049F00003AC21002800C8C8C8C18A466346591CB8
:104A0000DB0109030B438022920591460692BD48C3
:104A10000340049310AE3000230086CB86C0B82339
:104A2000DB014A4613431393B1498B463300624678
:104A300000215846006800F011FEAF4989460B6816
:104A40009C4641460791F82252026A60C0273F0304
:104A5000AF60210028008CC88CC100220A6061462A
:104A6000083163460F33CA011B031343636018AB5D
:104A70009C46200086C886C300221A601032614618
:104A80003000FFF777F9A04AF1680A409F4B1343C3
:104A90009F4A1A409F4B13439F4A1340C0273F032E
:104AA0003B43F3609D4BB1680B4041460B439C4A2E
:104AB0001340802292021343B360594608683300C2
:104AC00049460A68012100F0C9FD49460B680022E9
:104AD000EA6041460791F82252026A60AF60220004
:104AE00083CD83C2002251460A601A0008320F3378
:104AF000D2011B031343636014A90B0025CC25C30B
:104B000000221A6010323000FFF734F9764B1B7820
:104B1000002B00D120E10421724B1A68139B0193F2
:104B2000794B019803401343080503437848034039
:104B30005001034389060B4377490B40D2031343CB
:104B40001393129B0193754A1A4080235B0213430F
:104B5000734A13408022920213431293664B1A68E1
:104B6000634C10AB0221206800F078FD3220FFF783
:104B7000B9FE2068F0230022C25018330232C2501E
:104B8000594B1B78002B00D1E8E00F24554B1B68D4
:104B900022009A401300C02252041A43130000213D
:104BA00000F024FD524B1B68E022120222438421B4
:104BB00049005A505B4A5A61012252425A615A6175
:104BC000594A5A611968594A0A431A6000230BAAC4
:104BD0008020C00595210904FFF7E4FB06230BAAFA
:104BE00053485449FFF7DEFB0B9A0C9B5B08D10737
:104BF0000B431BBA0C93520812BA0B92DBB2A52BD3
:104C000000D0ADE006230BAAEE20C005CA21C903DF
:104C1000FFF7C8FB06230BAA4748CD210904FFF77D
:104C2000C1FB0B9B0C9A5208D9070A4312BA0C928B
:104C30005B081BBA0B93DAB23F2A00D097E01B0443
:104C4000E0D53E48FFF7AAF911230BAA8420C0053E
:104C50009A21C903FFF7A6FB06230BAA8620C005ED
:104C600084218903FFF79EFB0B9B0C9A5208D907FE
:104C70000A4312BA0C925B081BBA0B931A04140E67
:104C80002F490C701B02180E03002E4908704A2190
:104C900049426140C9B22C48415C5940415C415C89
:104CA000405C012101438E20C001204300021843D3
:104CB0000904000206230BAAFFF774FBFFF78CFC24
:104CC000094B1878FFF79AFD002856D01DB0F0BCAC
:104CD000BB46B246A946A046F0BDC046A46F001030
:104CE00016150020F81400201515002014150020BA
:104CF000840A0020AC6D0010E00F0020A06D0010B1
:104D0000DC0F0020FFFFFF9FE0FF0FFC18001000EA
:104D10001FFCFFE300030004FF7FF0FFFFFF0AFE1C
:104D2000FFFFF5C14F0003000000FFFF0707000071
:104D300001000048000069A50010406934690010B6
:104D40001A1500201B150020A06C00100D4B0E4AF8
:104D50000E490F48FCF7FAFB0121DDE6012415E7B7
:104D600000BE0C48FFF71AF901204042AEE70A4B9B
:104D7000054A0A490648FCF7E9FB0130FFF7B2FD96
:104D8000A4E7C046E4680010346C00102E02000056
:104D9000EC650010F8680010206900107702000030
:104DA00010B5034B1B780020FFF7AEFD10BDC046C9
:104DB000A86F0010F0B589B001900F001500804B6E
:104DC0001B685B685B050AD5019B00261A68002AF0
:104DD00011D05C68002C08D036190833F6E7794BFF
:104DE000794A7A497A48FCF7B1FB7A4B764A7A4994
:104DF0007748FCF7ABFB724B1B68822252009A5833
:104E0000022A06D08222520099587448FFF7F6F819
:104E1000F1E70332FF329A58022A25D15B685B051D
:104E200028D5202D2DD86E4B1B78022B2FD0812317
:104E30006B43B3422DD16B4B1A7801235A40D2B247
:104E400000230199022000F09FFC00246649AC4237
:104E500025D263426341DBB2802292000220FFF739
:104E600073F901000134F2E7604B574A6049584832
:104E7000FCF76CFBC121534B534A89005448FCF7A3
:104E800065FB5C4B504A5C495148FCF75FFB803343
:104E9000CEE75A4B4C4A5A494D48FCF757FB594A02
:104EA0008023DB01134308221343073A13430F32D5
:104EB0001343554A1340A022D2021343404A1068BC
:104EC0001830494C091B8910504A14605060916099
:104ED000D360002D27D0012D2CD02A0E2E0CF6B237
:104EE0002C0AE4B2EDB27C235B425340DBB248496A
:104EF000CB5C7340CB5C6340CB5C6B40C95C2D02E8
:104F00000D4301212943AE20C0011043000230436C
:104F1000090400022043062303AAFFF743FA0028EE
:104F20002BD009B0F0BDC7213A4B274A8900284849
:104F3000FCF70CFB3D0E3C0CE4B23A0AD2B2FFB2D5
:104F400018235B426B40DBB23149CB5C6340CB5CE6
:104F50005340CB5C7B40C95C3F020F430121394386
:104F6000A220C0012843000220430904000210438C
:104F7000062303AAFFF716FAD3E73D0E3C0CE4B272
:104F80003A0AD2B2FFB222235B426B40DBB2204925
:104F9000CB5C6340CB5C5340CB5C7B40C95C3F0245
:104FA0000F4301213943A420C001284300022043BC
:104FB000090400021043062303AAFFF7F3F9B0E740
:104FC000840A002040690010646C0010F5020000A3
:104FD000EC6500106C690010FA02000074690010A2
:104FE0001615002017150020681300208069001096
:104FF00003030000D069001005030000F8690010E9
:105000000703000010801F00FF7FE0FF0002005038
:10501000A06C0010386A001070B50400A022D20500
:1050200094239B00D358DB0138D4A4239B00D3588E
:10503000DB013AD484239B00D358DB0138D41E4BC8
:105040001B68822252009A58022A04D00025002DA3
:105050000ED1002324E05B685B0101D50125F6E752
:105060000025F4E71548FEF7C9FF03235B4211E072
:105070000021134B1B688B420BDD4B001148CA000B
:105080001258120C01339B001B589A42EAD101318D
:10509000EFE700230A4A0021116001E00025002308
:1050A000002C00D02360280070BD00250023F7E706
:1050B00000250023F4E7C046840A0020446A00105B
:1050C0002817002010100020F0B583B0202A07D840
:1050D000184B1B78022B09D001260025164B15E032
:1050E000164B174A17491848FCF730FA0226F4E71E
:1050F0006C0204191C6080245C6034006C43A400C2
:10510000124FE4199C60DE60013510339542EFD3F5
:105110000020186058600848FFF74CFE01900028F6
:1051200004D101A8FFF778FF0028FAD0019803B056
:10513000F0BDC0461615002010110020D0690010E7
:105140003C6C0010B7020000EC650010101000204D
:10515000F0B5DE4657464E464546E0B58DB0049064
:10516000059193460020FFF749FBAD4B1B685B6838
:105170005B0509D55B46072B0CD8AA4B5A461A602B
:1051800000239846A84C63E0A84BA94AA949AA481D
:10519000FCF7DCF9A948FCF7F7F9A94B2360A94B08
:1051A00063600126A66003960025029501950922F9
:1051B000914600923F23002200210220FFF754F87D
:1051C000E060974B1F682837276142465302049AD4
:1051D0009446634463618023A3610396029501951D
:1051E0004A460092723B083A00210220FFF73CF841
:1051F000C0231B040343E36127624246D700924A5F
:105200009246BB186362A6620396029501954A46D0
:1052100000920E23002200210220FFF725F8E06211
:10522000884B2363043757446763A66327004037DE
:105230000396029501954B460093363300220021D8
:105240000220FFF711F8E06301239C46E0443C0094
:10525000D845A2D300232360636005E08222520078
:1052600099587A48FEF7CAFE6D4B1B68822252009D
:105270009A58022AF2D10332FF329A58022A12D1E6
:105280005B685B0515D55B46202B18D8A022D2059C
:105290006F4B5521D1506449022000F08DFA002453
:1052A0006C495D461BE06C4B614A6C496248FCF7F7
:1052B0004DF95E4B5E4A6A495F48FCF747F9694B16
:1052C0005B4A69495C48FCF741F963426341DBB2E0
:1052D000802292000220FEF737FF01000134AC4229
:1052E000F3D3624A8023DB01134308221343073AB6
:1052F00013430F3213435E4A1340A022D2021343DA
:10530000474A10681830534C091B8910594A1460D9
:10531000506091601361A022D2058623DB008021BA
:105320004900D1502B1E2CD0012D30D02E0E2D0C2B
:10533000EDB21C0AE4B2DAB27C235B427340DBB20A
:105340004D49CB5C6B40CB5C6340CB5C5340C95C4C
:1053500012020A4301211143AE20C0013043000272
:105360002843090400022043062307AAFFF71AF87E
:10537000002830D00DB0F0BCBB46B246A946A046CE
:10538000F0BD3E4B2A4A3E492B48FCF7DFF8059B0F
:105390001E0E1C0CE4B21A0AD2B2DDB218235B4214
:1053A0007340DBB23449CB5C6340CB5C5340CB5C95
:1053B0006B40C95C2D020D4301212943A220C0018D
:1053C000304300022043090400021043062307AAC9
:1053D000FEF7E8FFCEE7059B1E0E1C0CE4B21A0A8E
:1053E000D2B2DDB222235B427340DBB22249CB5CF6
:1053F0006340CB5C5340CB5C6B40C95C2D020D43DA
:1054000001212943A420C0013043000220430904A4
:1054100000021043062307AAFEF7C4FFAAE7C0460E
:10542000840A002028170020101100204069001075
:10543000806C00101C040000EC6500105C6A001019
:105440002C17002038040050101000207469001040
:10545000340400006813002080690010410400003B
:10546000420400001C6B00104304000010801F0069
:10547000FF7FE0FF00020050A06C0010AC6A00103B
:105480005A0400000523CB56002B01DB934211D1B7
:10549000094B9C466044434258418000074BC0582A
:1054A000097901238B40013B934018404342584106
:1054B000C0B270470020FCE70000D0AFC40B002052
:1054C00070B50A79202A19D8174B9C46604443428C
:1054D00058418000154BC45801239340013B497942
:1054E00049B2002910DB08002025AA1A914218DCD5
:1054F0008B401C4201D00120404270BD0C4B0D4A34
:1055000040210D48FCF722F82020801A002805DBF6
:105510001A0082401442F0D00138F7E701204042DF
:10552000EBE701204042E8E70000D0AFC40B0020C9
:10553000DC6D00105C6E0010086E001070B5050088
:105540000C001600FFF79EFF002801D0002107E0A5
:105550001548FCF719F88B1912339B005A51013189
:1055600023798B420FD92378627812021A43A378E9
:105570001B041A43E3781B0613434A009A5A530B41
:10558000E9D19219E7E701229A401300013B074A4B
:105590009446654468424541B340054AAD00A95868
:1055A0000B43AB5070BDC046486E00100000D0AF3A
:1055B000C40B0020F8B505000E00FAF7D3FF070072
:1055C00031002800FFF77CFF041E09DB02003100D8
:1055D0002800FFF7B3FF3800FAF7D0FF2000F8BD2E
:1055E0000148FBF7D1FFC046486E0010F8B5CE4623
:1055F000474680B507000E0090461D004B005B1823
:10560000DB00C318DC331B689946002D18D0280036
:10561000FDF73CFC42018023DB0413437400A41912
:10562000E4003C192200DC3213604246C2400123F0
:105630001A40094B1343D83423606B1E1D40E4E726
:1056400071008E19F600BF19DC374B463B60C0BCB9
:10565000B946B046F8BDC04680E00000F0B5046829
:1056600001258D40AC430460002B34D04C006418FD
:10567000E40004192500C8351E682E6004355E68F4
:105680002E6004359E682E60DB68DC3423604C009D
:105690006318DB00D033C31880256D012B438025B0
:1056A0002D061D601D60164B8B40836005680E1D26
:1056B00001231F00B7403D43056005680E00083612
:1056C000B3402B4303601F231A406118C9004018E0
:1056D000D8300260F0BD4B005B18DB00C3181C0023
:1056E000C83480256D0225600434F8256D022560DC
:1056F0000434C0252D032560DC3300241C60C6E77C
:105700000101010110B583070AD00300032102E063
:1057100001330B4205D01A78002AF9D1181A10BDAE
:10572000030019680C4A0D4C8A188A4322420FD193
:105730005968094A04338A188A43224208D15968B1
:10574000054A04338A188A432242F1D000E001332B
:105750001A78002AFBD1E1E7FFFEFEFE8080808000
:10576000F8B5C0460000000001B40248844601BC00
:10577000604700BFB101002001B40248844601BC6B
:10578000604700BFA509002001B40248844601BC5F
:10579000604700BFAD02002001B40248844601BC4E
:1057A000604700BFA509002001B40248844601BC3F
:1057B000604700BF5501002001B40248844601BC87
:1057C000604700BF4502002001B40248844601BC86
:1057D000604700BF0909002001B40248844601BCAB
:0857E000604700BFC10000207A
:1057E80053442043617264207465737400000000A0
:1057F800646F68002D2D2D2D2D2D2D2D2D2D2D2D4A
:105808002D2D2D2D2D2D2D2D2D2D2D005350454574
:10581800442025754D422F730A000000312062692B
:1058280074206E6F206372630000000025303878A2
:105838002000000025303278200000003120626905
:1058480074206372630000005374617475733A20A6
:1058580025640A00446F6E652100000072742D3EB5
:10586800616C61726D5F6964203D3D206964000070
:105878002F55736572732F63687565792F70696327
:105888006F2F7069636F2D73646B2F7372632F634F
:105898006F6D6D6F6E2F7069636F5F74696D652FC3
:1058A80074696D652E63000069642026262069648A
:1058B800203C3D20706F6F6C2D3E686561702D3EF9
:1058C8006D61785F6E6F646573000000256C6C64B1
:1058D800202868692025303278290000696420264C
:1058E80026206964203C3D20686561702D3E6D610D
:1058F800785F6E6F646573002F55736572732F63DD
:10590800687565792F7069636F2F7069636F2D7380
:10591800646B2F7372632F636F6D6D6F6E2F706979
:10592800636F5F7574696C2F696E636C7564652F3E
:105938007069636F2F7574696C2F70686561702E5C
:1059480068000000706172656E745F696400000031
:105958006368696C645F6964000000007061726567
:105968006E745F696420213D206368696C645F69B7
:10597800640000002170685F636F6E7461696E7304
:105988005F6E6F646528706F6F6C2D3E686561701F
:105998002C2072657573655F6964290075735F7380
:1059A800696E63655F626F6F74203C3D20494E5499
:1059B80036345F4D415800002F55736572732F635D
:1059C800687565792F7069636F2F7069636F2D73C0
:1059D800646B2F7372632F636F6D6D6F6E2F7069B9
:1059E800636F5F626173652F696E636C7564652FA1
:1059F8007069636F2F74797065732E6800000000FA
:105A080072656D6F7665645F6964203D3D206E65E3
:105A180078745F696400000063616C6C6261636B39
:105A280000000000706F6F6C2D3E616C61726D5FDD
:105A3800696E5F70726F6772657373203D3D206D8C
:105A4800616B655F7075626C69635F69642869641E
:105A58005F686967682C206E6578745F69642900DF
:105A68006964202626202170685F636F6E746169FF
:105A78006E735F6E6F646528686561702C20696459
:105A8800290000007570646174655F75735F7369E0
:105A98006E63655F626F6F740000000070685F6717
:105AA80065745F6E6F64650070685F6164645F63EE
:105AB80068696C645F6E6F646500000070685F6998
:105AC8006E736572745F6E6F6465000070685F6600
