:020000041000EA
:1000000000B5324B212058609868022188439860DF
:10001000D860186158612E4B002199600221596106
:100020000121F02299502B49196001219960352056
:1000300000F044F80222904214D00621196600F024
:1000400034F8196E01211966002018661A6600F04E
:100050002CF8196E196E196E052000F02FF8012189
:100060000842F9D1002199601B49196000215960AB
:100070001A491B48016001219960EB211966A021F2
:10008000196600F012F800219960164914480160C1
:100090000121996001BC002800D000471248134993
:1000A000086003C880F30888084703B5996A0420EC
:1000B0000142FBD001200142F8D103BD02B5186610
:1000C0001866FFF7F2FF186E186E02BD00000240BE
:1000D000000000180000070000035F00212200005C
:1000E000F4000018222000A00001001008ED00E03C
:1000F00000000000000000000000000074B24E7A12
:1001000000200420F7010010C3010010C5010010F9
:10011000C1010010C1010010C1010010C101001097
:10012000C1010010C1010010C1010010C701001081
:10013000C1010010C1010010C9010010CB01001065
:10014000CD010010CD010010CD010010CD01001037
:10015000CD010010CD010010CD010010CD01001027
:10016000CD010010CD010010CD010010CD01001017
:10017000CD010010CD010010CD010010CD01001007
:10018000CD010010CD010010CD010010CD010010F7
:10019000CD010010CD010010CD010010CD010010E7
:1001A000CD010010CD010010CD010010CD010010D7
:1001B000CD010010CD010010CD010010CD010010C7
:1001C00000BE00BE00BE00BE00BE00BE00F04BF888
:1001D000103800BEF2EB8871A85A0510C45A0510F9
:1001E0003402001090A31AE700202149086006C8D5
:1001F00081F3088810471F48006800282FD10DA4FC
:100200000ECC002902D000F012F8F9E71A491B4A77
:10021000002000E001C19142FCD1194988471949E9
:1002200088471949884700BEFDE701C901C29A42C3
:10023000FBD37047C45A0510C0000020441D0020A5
:1002400048770510000004200000042048770510BE
:1002500000100420001004200000000070470B482C
:1002600005F012FB0047EFF30580C0B270470000B5
:1002700008ED00E0000000D0481D0020FC37002001
:10028000E93D0010692D0010FD3E0010575600009A
:1002900006005250ABB360537C99041006005250D4
:1002A000861C03028C990410060052505422A29D11
:1002B000A499041005005250DE65F46848770510D3
:1002C000F8B5C04610B5064C2378002B07D1054B76
:1002D000002B02D0044800E000BF0123237010BDB2
:1002E000481E002000000000B88B0410044B10B51D
:1002F000002B03D00349044800E000BF10BDC046F6
:10030000000000004C1E0020B88B04100004000CFC
:1003100070470000014B584080B270470080FFFFDB
:10032000000280B270470000000283B201485840CA
:1003300080B270470080FFFF014B584000B2704709
:100340000080FFFF00B27047000283B201485840AE
:1003500000B270470080FFFF000200B27047031236
:10036000FF2018407047030A802040425840C0B226
:100370007047FF231840704780235B425840C0B24B
:100380007047030A80204042584040B27047001234
:1003900040B2704780235B42584040B2704740B241
:1003A0007047000070B504000D00012805D0002C36
:1003B00002D1074B9D4207D070BD054B9942F6D143
:1003C000044806F0B5FEF2E7024806F0C1FEF3E786
:1003D000FFFF0000BC34002010B5914200D110BDD9
:1003E00013000A000100044806F08AFC034B044A8B
:1003F0003821044803F086FDB88B0410E48B041008
:10040000EC8B0410108C041010B53BF007FE80B28A
:1004100010BDF8B5DE4657464E464546E0B500AF3E
:1004200081463BF0FBFD0130FF30FF2606407500A2
:10043000EB1DDB08DB006A46D21A9546EA46D31A62
:100440009D46E8460024B44206D2FFF7DDFF630074
:100450004246D0520134F6E72A004146504606F0A3
:10046000C3FA0024B4420FD263009B4643465A4667
:10047000D55A2800C847010053465A46D25A280088
:10048000FFF7AAFF0134EDE7BD46F0BCBB46B2461C
:10049000A946A046F8BD0000F8B5DE4657464E46D0
:1004A0004546E0B500AF81463BF0B8FD0130FF3076
:1004B000FF2505406B000733DB08DB006A46D21AD4
:1004C0009546EA46D31A9D46E8460024AC4206D239
:1004D000FFF79AFF63004246D0520134F6E74046E8
:1004E00051460022AA4207D20488104B63400B8079
:1004F000013202300231F5E70024AC420FD2630032
:100500009B4643465A46D65A3000C84701005346D8
:100510005A46D25E3000FFF75FFF0134EDE7BD467B
:10052000F0BCBB46B246A946A046F8BD0080FFFF1E
:10053000F8B5DE4657464E464546E0B500AF824622
:100540003BF06CFD0130FF30FF23034099465B0018
:100550004A4692000732D208D20069468A1A954666
:10056000EB460733DB08DB00D31A9D466E460024BA
:100570004C4505D2FFF748FF6300F0520134F7E71E
:100580004C4631005A46002C09D00888154B434090
:100590001BB213805380013C02310432F3E74C4517
:1005A00019D26500AB5B98461800D0470100A30044
:1005B0005A469A5E4046FFF70FFFAB5B984618001D
:1005C000D047010001356D005B46EA5E4046FFF70B
:1005D00003FF0134E3E7BD46F0BCBB46B246A94683
:1005E000A046F8BD0080FFFFF0B5D6464F46464610
:1005F000C0B500AF80463BF011FD0130FF30FF2554
:100600000540EB1DDB08DB006A46D31A9D46E94630
:100610006B000733DB08DB006A46D31A9D466E4643
:100620000024AC4205D2FFF7EFFE6300F052013424
:10063000F7E7300049460022AA4206D203881B0A87
:100640000B70013202300131F6E70024AC420CD2CB
:1006500063009B5B9A461800C04701004B461A5D39
:100660005046FFF7B9FE0134F0E7BD46E0BCBA469C
:10067000B146A846F0BDF8B5DE4657464E4645465B
:10068000E0B500AF82463BF0C9FC0130FF30FF23EC
:10069000034099465B000733DB08DB006A46D21A49
:1006A0009546EB46D31A9D466E4600244C4505D22E
:1006B000FFF7AAFE6300F0520134F7E74C46310021
:1006C0005A46002C07D00B881B0A13705370013C4C
:1006D00002310232F5E74C4517D26500AB5B984614
:1006E0001800D04701005B465A5D4046FFF774FE94
:1006F000AB5B98461800D047010001355B465A5D58
:100700004046FFF769FE0134E5E7BD46F0BCBB4655
:10071000B246A946A046F8BDF0B5D6464F46464675
:10072000C0B500AF81463BF079FC0130FF30FF24BB
:100730000440E31DDB08DB006A46D31A9D46E84609
:1007400063000733DB08DB006A46D31A9D466D461B
:100750000026A64205D2FFF757FE7300E852013685
:10076000F7E7280041460022A24209D206880F4B33
:1007700073409BB21B0A0B70013202300131F3E768
:100780000026A6420CD273005B5B9A461800C8474D
:10079000010043469A575046FFF71EFE0136F0E728
:1007A000BD46E0BCBA46B146A846F0BD0080FFFF9A
:1007B000F8B5DE4657464E464546E0B500AF8046A2
:1007C0003BF02CFC0130FF30FF260640730007335E
:1007D000DB08DB006A46D21A9546E946D31A9D46E5
:1007E0006D460024B44205D2FFF70EFE6300E852C6
:1007F0000134F7E7340029004A46002C0BD0088862
:10080000174B43409BB21B0A5BB213705370013C01
:1008100002310232F1E7B4421BD263009A465B5BBD
:100820009B461800C04701004B4652469A56584610
:10083000FFF7D2FD53465B5B9B461800C0470100A3
:10084000534601334A46D2565846FFF7C5FD013498
:10085000E1E7BD46F0BCBB46B246A946A046F8BD9E
:100860000080FFFFF8B5DE4657464E464546E0B5E8
:1008700000AF82463BF0D2FB0130FF30FF23034044
:1008800099465B004A4692000732D208D200694678
:100890008A1A9546EB460733DB08DB00D31A9D46E0
:1008A0006E4600244C4505D2FFF7AEFD6300F052C2
:1008B0000134F7E74C4632005B46002C06D0118825
:1008C00019805980013C02320433F6E74C4519D2B5
:1008D0006500AB5B98461800D0470100A3005A465C
:1008E0009A5A4046FFF778FDAB5B98461800D04710
:1008F000010001356D005B46EA5A4046FFF76CFD8A
:100900000134E3E7BD46F0BCBB46B246A946A0466B
:10091000F8BD10B53BF082FB80B210BDF8B5DE46E5
:1009200057464E464546E0B500AF81463BF076FB64
:100930000130FF30FF2505406E00AD00EB1DDB08E8
:10094000DB006A46D21A9546EA46D31A9D46E84627
:100950000024A64206D9FFF7DCFF63004246D052CE
:100960000134F6E72A004146504606F03DF80024DF
:10097000A6420FD963009B4643465A46D55A2800E3
:10098000C847010053465A46D25A2800FFF724FDB3
:100990000134EDE7BD46F0BCBB46B246A946A046D1
:1009A000F8BD0000F0B5D6464F464646C0B500AF8C
:1009B00081463BF033FB0130FF30FF230340984674
:1009C0005E00F31DDB08DB006A46D31A9D46EA464B
:1009D00043469B000733DB08DB006A46D31A9D467B
:1009E0006D460024B44205D2FFF793FF6300E8523E
:1009F0000134F7E744462A005046002C0AD01388F9
:100A000051885B185B0804320F494B400380013C5E
:100A10000230F2E7444510D26600A300585B731C15
:100A20005B005B5BC0184010C84701005346F25E94
:100A30000648FFF7D1FC0134ECE7BD46E0BCBA46FE
:100A4000B146A846F0BDC0460080FFFF0DF0000093
:100A5000F8B5DE4657464E464546E0B500AF8146FE
:100A60003BF0DCFA431CFF33FF2003405D009B009A
:100A70000733DB08DB006A46D21A9546EA46D31AEA
:100A80009D46E8460024A54206D9FFF742FF6300D1
:100A90004246D0520134F6E7404651460022954284
:100AA00007D90488104B63400B80013202300231B9
:100AB000F5E70024A5420FD963009B4643465A46FA
:100AC000D65A3000C847010053465A46D25E30001D
:100AD000FFF782FC0134EDE7BD46F0BCBB46B246F1
:100AE000A946A046F8BDC0460080FFFF10B504002F
:100AF000FFF7D2FC2000FFF71BFD2000FFF752FF9D
:100B00002000FFF7A5FF10BDF0B5D6464F4646467C
:100B1000C0B500AF80463BF081FA0130FF30FF26C0
:100B20000640F31DDB08DB006A46D31A9D46E94602
:100B300073009A46B3000733DB08DB006A46D31A1A
:100B40009D466D460024A24505D9FFF7E2FE6300ED
:100B5000E8520134F7E734002A004946002C08D057
:100B6000138850881B1804325B0A0B70013C01315A
:100B7000F4E7B44210D26300A200505B01335B0083
:100B80005B5BC0184010C04701004B461A5D05482A
:100B9000FFF722FC0134ECE7BD46E0BCBA46B146A3
:100BA000A846F0BD0DF00000F0B5D6464F464646CB
:100BB000C0B500AF80463BF031FA431CFF33FF2045
:100BC00018404500EB1DDB08DB006A46D31A9D4642
:100BD000E94680000730C008C0001B1A9D466E46DB
:100BE0000024A54205D9FFF794FE6300F0520134BA
:100BF000F7E7300049460022954206D903881B0AD0
:100C00000B70013202300131F6E70024A5420CD905
:100C100063009B5B9A461800C04701004B461A5D73
:100C20005046FFF7D9FB0134F0E7BD46E0BCBA46B9
:100C3000B146A846F0BD10B50400FFF7D5FC200072
:100C4000FFF719FD2000FFF75FFF2000FFF7ACFF63
:100C500010BD0000F0B5D6464F464646C0B500AFC1
:100C600080463BF0DBF90130FF30FF260640F31DE4
:100C7000DB08DB006A46D31A9D46E94673009A46B4
:100C8000B3000733DB08DB006A46D31A9D466D4686
:100C90000024A24505D9FFF73CFE6300E852013469
:100CA000F7E7340029004846002C0CD00B884A880E
:100CB0009A1852080431104B53409BB21B0A037020
:100CC000013C0130F0E7B44210D26300A200505B57
:100CD00001335B005B5BC0184010C04701004B460E
:100CE0001A570648FFF778FB0134ECE7BD46E0BC35
:100CF000BA46B146A846F0BD0080FFFF0DF00000E7
:100D0000F0B5D6464F464646C0B500AF81463BF0EB
:100D100085F9431CFF33FF2018404400E31DDB0826
:100D2000DB006A46D31A9D46E84680000730C008BB
:100D3000C0001B1A9D466D460026B44205D9FFF738
:100D4000E8FD7300E8520136F7E72800414600222B
:100D5000944209D906880F4B73409BB21B0A0B7053
:100D6000013202300131F3E70026B4420CD973009E
:100D70005B5B9A461800C847010043469A575046A5
:100D8000FFF72AFB0136F0E7BD46E0BCBA46B146A4
:100D9000A846F0BD0080FFFF10B50400FFF7BCFCC3
:100DA0002000FFF705FD2000FFF754FF2000FFF7AC
:100DB000A7FF10BDF0B5D6464F464646C0B500AFBA
:100DC00081463BF02BF90130FF30FF23034098466A
:100DD0005E00F31DDB08DB006A46D31A9D46EA4637
:100DE00043469B000733DB08DB006A46D31A9D4667
:100DF0006D460024B44205D2FFF78BFD6300E85234
:100E00000134F7E744462A005146002C08D01388E5
:100E100050881B185B0804320B80013C0231F4E758
:100E2000444510D26600A300585B731C5B005B5BFB
:100E3000C0184010C84701005346F25A0548FFF752
:100E4000CBFA0134ECE7BD46E0BCBA46B146A84651
:100E5000F0BDC0460DF0000010B50400FFF7D9FA50
:100E60002000FFF7FFFC2000FFF7A4FF2000FFF7A2
:100E700055FD10BD10B53BF0D1F800B210BD00001B
:100E8000F8B5DE4657464E464546E0B500AF8146CA
:100E90003BF0C4F80130FF30FF2505406B000733FD
:100EA000DB08DB006A46D21A9546EA46D31A9D460D
:100EB000E8460024AC4206D2FFF7DCFF630042465E
:100EC000D0520134F6E7404651460022AA4207D2EA
:100ED0000488104B63400B80013202300231F5E789
:100EE0000024AC420FD263009B4643465A46D65E6E
:100EF0003000C847010053465A46D25A3000FFF727
:100F00006BFA0134EDE7BD46F0BCBB46B246A946DC
:100F1000A046F8BD0080FFFFF8B5DE4657464E46B6
:100F20004546E0B500AF82463BF078F80130FF302F
:100F3000FF23034099465B004A4692000732D208DD
:100F4000D20069468A1A9546EB460733DB08DB0078
:100F5000D31A9D466E4600244C4505D2FFF78AFF02
:100F60006300F0520134F7E74C4631005A46002C3A
:100F700009D00888154B43409BB213805380013C35
:100F800002310432F3E74C4519D26500AB5F984655
:100F90001800D0470100A3005A469A5A4046FFF76E
:100FA0001BFAAB5F98461800D047010001356D0071
:100FB0005B46EA5A4046FFF70FFA0134E3E7BD46C5
:100FC000F0BCBB46B246A946A046F8BD0080FFFF74
:100FD000F8B5DE4657464E464546E0B500AF814679
:100FE0003BF01CF80130FF30FF2606407500EB1D7A
:100FF000DB08DB006A46D21A9546EA46D31A9D46BC
:10100000E8460024B44206D2FFF734FF63004246AC
:10101000D0520134F6E72A004146504605F0E4FC80
:101020000024B4420FD263009B4643465A46D55E25
:101030002800C847010053465A46D25E2800FFF7F1
:10104000CBF90134EDE7BD46F0BCBB46B246A9463C
:10105000A046F8BDF0B5D6464F464646C0B500AFEF
:1010600081463AF0DBFF0130FF30FF240440E31DEE
:10107000DB08DB006A46D31A9D46E8466300073367
:10108000DB08DB006A46D31A9D466D460026A64261
:1010900005D2FFF7EFFE7300E8520136F7E72E00A6
:1010A00040460021A1420BD20022B35E1B0ADBB2F4
:1010B0008022524253400370013102360130F1E781
:1010C0000026A6420CD273005B5F9A461800C84700
:1010D000010043469A5D5046FFF77EF90136F0E77E
:1010E000BD46E0BCBA46B146A846F0BDF8B5DE46FE
:1010F00057464E464546E0B500AF82463AF08EFF71
:101100000130FF30FF23034099465B000733DB08C3
:10111000DB006A46D21A9546EB46D31A9D466E46C8
:1011200000244C4505D2FFF7A5FE6300F0520134C0
:10113000F7E74C4630005946002C0DD00022835E64
:101140001B0ADAB280235B425340DBB20B704B7058
:10115000013C02300231EFE74C4517D26500AB5F2E
:1011600098461800D04701005B465A5D4046FFF79D
:1011700033F9AB5F98461800D047010001355B4654
:101180005A5D4046FFF728F90134E5E7BD46F0BC5B
:10119000BB46B246A946A046F8BDF0B5D6464F4676
:1011A0004646C0B500AF80463AF038FF0130FF3008
:1011B000FF250540EB1DDB08DB006A46D31A9D4680
:1011C000E9466B000733DB08DB006A46D31A9D460D
:1011D0006E460024AC4205D2FFF74CFE6300F0528D
:1011E0000134F7E731004A460023AB4206D2012022
:1011F00008561070013302310132F6E70024AC4288
:101200000CD263009B5F9A461800C04701004B4612
:101210001A575046FFF7E0F80134F0E7BD46E0BC4E
:10122000BA46B146A846F0BDF8B5DE4657464E462A
:101230004546E0B500AF82463AF0F0FE0130FF309F
:10124000FF23034099465B000733DB08DB006A4657
:10125000D21A9546EB46D31A9D466E4600244C455D
:1012600005D2FFF707FE6300F0520134F7E74C4662
:1012700032005B46002C07D001215156197059707D
:10128000013C02320233F5E74C4517D26500AB5FF3
:1012900098461800D04701005B465A574046FFF772
:1012A0009BF8AB5F98461800D047010001355B46BC
:1012B0005A574046FFF790F80134E5E7BD46F0BCC9
:1012C000BB46B246A946A046F8BDF8B5DE4657462D
:1012D0004E464546E0B500AF82463AF09FFE0130EB
:1012E000FF30FF23034099465B004A4692000732D5
:1012F000D208D20069468A1A9546EB460733DB08C6
:10130000DB00D31A9D466E4600244C4505D2FFF7FC
:10131000B1FD6300F0520134F7E74C4632005B4602
:10132000002C07D00020115E19805980013C023248
:101330000433F5E74C4519D26500AB5F98461800B9
:10134000D0470100A3005A469A5E4046FFF744F892
:10135000AB5F98461800D047010001356D005B4631
:10136000EA5E4046FFF738F80134E3E7BD46F0BCDB
:10137000BB46B246A946A046F8BD10B53AF04EFEAF
:1013800000B210BDF8B5DE4657464E464546E0B5BC
:1013900000AF80463AF042FE0130FF30FF260640A3
:1013A000B34673009A460733DB08DB006A46D31A5C
:1013B0009D46E946B3000733DB08DB006A46D31AD3
:1013C0009D466D460024544505D2FFF7D6FF6300C5
:1013D000E8520134F7E75C4629004846002C0FD05C
:1013E00000228B5E02268A5F9A18D30F9B185B102F
:1013F00004319BB2124A53400380013C0230EDE7B6
:101400005C4515D263009A46A300585F53460133EA
:101410005B005B5FC318D80FC0184010C0470100C5
:101420004B465246D25A0748FEF7D6FF0134E7E74B
:10143000BD46F0BCBB46B246A946A046F8BDC04674
:101440000080FFFF0DF00000F8B5DE4657464E461F
:101450004546E0B500AF81463AF0E0FD431CFF335E
:10146000FF2003405D009B000733DB08DB006A467A
:10147000D21A9546EA46D31A9D46E8460024A5426C
:1014800006D9FFF77AFF63004246D0520134F6E7EF
:10149000404651460022954207D90488104B6340CC
:1014A0000B80013202300231F5E70024A5420FD94A
:1014B00063009B4643465A46D65E3000C84701004B
:1014C00053465A46D25A3000FEF786FF0134EDE704
:1014D000BD46F0BCBB46B246A946A046F8BDC046D4
:1014E0000080FFFF10B50400FFF7CAFC2000FFF7E3
:1014F00013FD2000FFF746FF2000FFF7A5FF10BDFA
:10150000F8B5DE4657464E464546E0B500AF814643
:101510003AF084FD0130FF30FF2505406E00AD003C
:10152000EB1DDB08DB006A46D21A9546EA46D31A61
:101530009D46E8460024A64206D9FFF71EFF630039
:101540004246D0520134F6E72A004146504605F0A3
:101550004BFA0024A6420FD963009B4643465A46E5
:10156000D55E2800C847010053465A46D25E28007F
:10157000FEF732FF0134EDE7BD46F0BCBB46B24694
:10158000A946A046F8BD0000F8B5DE4657464E46CF
:101590004546E0B500AF80463AF040FD0130FF30EF
:1015A000FF260640B34633000733DB08DB006A46FC
:1015B000D31A9D46E94673009A46B3000733DB0809
:1015C000DB006A46D31A9D466D460024A24505D924
:1015D000FFF7D3FE6300E8520134F7E75C462A00C8
:1015E0004946002C12D00020135E0226905F181886
:1015F000C30F1B185B101BB204321B0ADBB2802026
:10160000404243400B70013C0131EAE75C4512D295
:101610006300A200505F01335B005B5FC318D80F0B
:10162000C0184010C04701004B461A5D0548FEF740
:10163000D3FE0134EAE7BD46F0BCBB46B246A9463C
:10164000A046F8BD0DF00000F0B5D6464F46464620
:10165000C0B500AF81463AF0E1FC431CFF33FF20E8
:1016600018404400E31DDB08DB006A46D31A9D46A0
:10167000E84680000730C008C0001B1A9D466D4632
:101680000026B44205D9FFF778FE7300E852013610
:10169000F7E72E00404600218C420BD90022B35EB2
:1016A0001B0ADBB2802252425340037001310236E2
:1016B0000130F1E70026B4420CD973005B5F9A4613
:1016C0001800C847010043469A5D5046FEF784FE65
:1016D0000136F0E7BD46E0BCBA46B146A846F0BDCB
:1016E00010B50400FFF7B6FC2000FFF7FFFC200058
:1016F000FFF74AFF2000FFF7A7FF10BDF8B5DE4651
:1017000057464E464546E0B500AF80463AF086FC67
:101710000130FF30FF260640B34633000733DB08B5
:10172000DB006A46D31A9D46E94673009A46B30029
:101730000733DB08DB006A46D31A9D466D4600245A
:10174000A24505D9FFF719FE6300E8520134F7E717
:101750005C462A004946002C0ED00020135E02266B
:10176000905F1818C30F1B185B101BB204321B12BA
:101770000B70013C0131EEE75C4512D26300A20020
:10178000505F01335B005B5FC318D80FC018401077
:10179000C04701004B461A570548FEF71DFE0134AD
:1017A000EAE7BD46F0BCBB46B246A946A046F8BD36
:1017B0000DF00000F0B5D6464F464646C0B500AF26
:1017C00080463AF02BFC431CFF33FF2018404500B5
:1017D000EB1DDB08DB006A46D31A9D46E946800014
:1017E0000730C008C0001B1A9D466E460024A54263
:1017F00005D9FFF7C2FD6300F0520134F7E731006D
:101800004A4600239D4206D9012008561070013334
:1018100002310132F6E70024A5420CD963009B5F38
:101820009A461800C04701004B461A575046FEF72B
:10183000D3FD0134F0E7BD46E0BCBA46B146A84648
:10184000F0BD10B50400FFF7A8FC2000FFF7ECFC8A
:101850002000FFF753FF2000FFF7ACFF10BD000092
:10186000F0B5D6464F464646C0B500AF81463AF081
:10187000D5FB0130FF30FF23034098465E00F31D87
:10188000DB08DB006A46D31A9D46EA4643469B00C6
:101890000733DB08DB006A46D31A9D466D460024F9
:1018A000B44205D2FFF769FD6300E8520134F7E75F
:1018B000444629005046002C0CD000228B5E0226A4
:1018C0008A5F9A18D30F9B185B1004310380013C88
:1018D0000230F0E7444512D26600A300585F731C43
:1018E0005B005B5FC318D80FC0184010C8470100E9
:1018F0005346F25E0548FEF76FFD0134EAE7BD4648
:10190000E0BCBA46B146A846F0BDC0460DF00000A6
:1019100010B50400FFF75CFB2000FFF7D6FC2000A9
:10192000FFF79EFF2000FFF7EBFD10BD10B53AF06A
:1019300075FBC0B210BDF0B5D6464F464646C0B5A1
:1019400000AF80463AF06AFB0130FF30FF250540CA
:101950006B000733DB08DB006A46D31A9D46E94675
:10196000EB1DDB08DB006A46D31A9D466E46002459
:10197000AC4204D2FFF7DAFF30550134F8E730000B
:1019800049460022AA4206D203781B020B8001328C
:1019900001300231F6E70024AC420CD2335D9A46A6
:1019A0001800C047010063004A469A5A5046FEF7A5
:1019B00013FD0134F0E7BD46E0BCBA46B146A84687
:1019C000F0BDF8B5DE4657464E464546E0B500AF99
:1019D00082463AF023FB0130FF30FF230340994653
:1019E0009B000733DB08DB006A46D31A9D46EB46B3
:1019F0004B460733DB08DB006A46D31A9D466E462A
:101A000000244C4504D2FFF791FF30550134F8E72C
:101A10004C4631005A46002C07D00B781B0213802D
:101A20005380013C01310432F5E74C4519D2335D56
:101A300098461800D04701006500A3005A469A5AFC
:101A40004046FEF7C9FC335D98461800D0470100B8
:101A500001356D005B46EA5A4046FEF7BDFC013495
:101A6000E3E7BD46F0BCBB46B246A946A046F8BD7A
:101A7000F0B5D6464F464646C0B500AF80463AF070
:101A8000CDFA0130FF30FF2505406B000733DB083E
:101A9000DB006A46D31A9D46E946EB1DDB08DB00F6
:101AA0006A46D31A9D466E460024AC4204D2FFF724
:101AB0003DFF30550134F8E7340048460021A94283
:101AC00008D2227812020E4B5340038001310134B8
:101AD0000230F4E70024AC420CD2335D9A46180081
:101AE000C047010063004A469A5E5046FEF774FC08
:101AF0000134F0E7BD46E0BCBA46B146A846F0BDA9
:101B00000080FFFFF8B5DE4657464E464546E0B535
:101B100000AF80463AF082FA0130FF30FF260640DF
:101B2000B3000733DB08DB006A46D31A9D46E9465B
:101B3000F31DDB08DB006A46D31A9D466D46002480
:101B4000B44204D2FFF7F2FE28550134F8E734001E
:101B500028004A46002C0AD001780902164B4B4057
:101B60001BB213805380013C01300432F2E7B442CF
:101B70001BD22B5D9B461800C047010063009A46AC
:101B8000A3004A469A5E5846FEF726FC2B5D9B460C
:101B90001800C0470100534601335B004A469A5E75
:101BA0005846FEF719FC0134E1E7BD46F0BCBB46E0
:101BB000B246A946A046F8BD0080FFFFF0B5D64664
:101BC0004F464646C0B500AF80463AF027FA01308E
:101BD000FF30FF250540EB1DDB08DB006A46D21A0B
:101BE0009546E946D31A9D466E460024AC4204D27F
:101BF000FFF79CFE30550134F8E72A0031004846D3
:101C000004F0F2FE0024AC420BD2335D9A46180079
:101C1000C04701004B461A5D5046FEF7DDFB01341C
:101C2000F1E7BD46E0BCBA46B146A846F0BDF0B506
:101C3000D6464F464646C0B500AF80463AF0EEF96C
:101C40000130FF30FF250540EB1DDB08DB006A4655
:101C5000D21A9546E946D31A9D466E460024AC42F8
:101C600004D2FFF763FE30550134F8E730004946EF
:101C70000022AA4208D2047880235B4263400B70A2
:101C8000013201300131F4E70024AC420BD2335D64
:101C90009A461800C04701004B461A575046FEF7B7
:101CA0009BFB0134F1E7BD46E0BCBA46B146A8460D
:101CB000F0BDF8B5DE4657464E464546E0B500AFA6
:101CC00080463AF0ABF90130FF30FF260640730042
:101CD0000733DB08DB006A46D31A9D46E946F31D4D
:101CE000DB08DB006A46D31A9D466D460024B442E9
:101CF00004D2FFF71BFE28550134F8E73400290011
:101D00004A46002C0AD0087880235B4243405BB2ED
:101D100013705370013C01310232F2E7B4421AD21F
:101D20002B5D9B461800C047010063009A464B4656
:101D300052469A565846FEF74FFB2B5D9B461800BD
:101D4000C0470100534601334A46D2565846FEF773
:101D500043FB0134E2E7BD46F0BCBB46B246A946B0
:101D6000A046F8BDF8B5DE4657464E464546E0B5B6
:101D700000AF82463AF052F90130FF30FF230340B2
:101D800099465B000733DB08DB006A46D31A9D46A1
:101D9000EB464B460733DB08DB006A46D31A9D4609
:101DA0006E4600244C4504D2FFF7C0FD3055013487
:101DB000F8E74C4632005B46002C06D011781970CB
:101DC0005970013C01320233F6E74C4517D2335DBE
:101DD00098461800D047010065005B465A5D4046B2
:101DE000FEF7FAFA335D98461800D0470100013536
:101DF0005B465A5D4046FEF7EFFA0134E5E7BD4623
:101E0000F0BCBB46B246A946A046F8BD10B53AF0B4
:101E100005F9C0B210BD0000F8B5DE4657464E4683
:101E20004546E0B500AF80463AF0F8F80130FF30A3
:101E3000FF260640B34673009A460733DB08DB00F3
:101E40006A46D21A9546E946D31A9D466D46002445
:101E5000544504D2FFF7DAFF28550134F8E75C4611
:101E60002A004946002C09D0137850781B180232FA
:101E70005B081B020B80013C0231F3E75C450ED28C
:101E80006600A85D731CEB5CC0184010C0470100E1
:101E90004B46F25A0548FEF79FFA0134EEE7BD467D
:101EA000F0BCBB46B246A946A046F8BD0DF0000006
:101EB000F0B5D6464F464646C0B500AF80463AF02C
:101EC000ADF8431CFF33FF20184045008000073069
:101ED000C008C0006B461B1A9D46E946EB1DDB0897
:101EE000DB006A46D31A9D466E460024A54204D9FB
:101EF000FFF78CFF30550134F8E7300049460022E7
:101F0000954206D903781B020B8001320130023161
:101F1000F6E70024A5420CD9335D9A461800C04765
:101F2000010063004A469A5A5046FEF755FA0134BA
:101F3000F0E7BD46E0BCBA46B146A846F0BD10B5D4
:101F40000400FFF7F8FC2000FFF73BFD2000FFF73F
:101F500063FF2000FFF7ACFF10BD0000F8B5DE46C0
:101F600057464E464546E0B500AF80463AF056F833
:101F70000130FF30FF260640B34673009A46073310
:101F8000DB08DB006A46D21A9546E946D31A9D461D
:101F90006D460024544504D2FFF738FF285501341C
:101FA000F8E75C462A004946002C0BD0137850789D
:101FB0001B1802325B081B020E4843400B80013C99
:101FC0000231F1E75C450ED26600A85D731CEB5C44
:101FD000C0184010C04701004B46F25E0648FEF7AD
:101FE000FBF90134EEE7BD46F0BCBB46B246A9465C
:101FF000A046F8BD0080FFFF0DF00000F0B5D6460A
:102000004F464646C0B500AF80463AF007F8431C3D
:10201000FF33FF201840450080000730C008C00093
:102020006B461B1A9D46E946EB1DDB08DB006A4642
:10203000D31A9D466E460024A54204D9FFF7E6FE5A
:1020400030550134F8E73400484600218D4208D964
:10205000227812020E4B53400380013101340230CA
:10206000F4E70024A5420CD9335D9A461800C04716
:10207000010063004A469A5E5046FEF7ADF901340E
:10208000F0E7BD46E0BCBA46B146A846F0BDC04642
:102090000080FFFF10B50400FFF7EAFC2000FFF707
:1020A00031FD2000FFF75AFF2000FFF7A7FF10BD0A
:1020B000F0B5D6464F464646C0B500AF804639F02B
:1020C000ADFF0130FF30FF2505406D00EB1DDB0843
:1020D000DB006A46D21A9546E946D31A9D466E46FB
:1020E0000024A54204D9FFF791FE30550134F8E7EA
:1020F0002A003100484604F077FC0024A5420BD9A1
:10210000335D9A461800C04701004B461A5D5046A1
:10211000FEF762F90134F1E7BD46E0BCBA46B146CC
:10212000A846F0BDF0B5D6464F464646C0B500AF0E
:10213000804639F073FF0130FF30FF260640F31D63
:10214000DB08DB006A46D31A9D46E94673009A46CF
:102150000733DB08DB006A46D31A9D466D46002430
:10216000A24504D9FFF752FE28550134F8E73400A0
:102170002A004846002C0BD0137851785B185B0876
:102180000232802149424B400370013C0130F1E7AB
:10219000B4420ED26300E85C0133EB5CC01840101F
:1021A000C04701004B461A570548FEF715F90134A0
:1021B000EEE7BD46E0BCBA46B146A846F0BDC04613
:1021C0000DF00000F0B5D6464F464646C0B500AF0C
:1021D000804639F023FF0130FF30FF2505406D00B8
:1021E000EB1DDB08DB006A46D21A9546E946D31A96
:1021F0009D466E460024A54204D9FFF707FE3055E0
:102200000134F8E7300049460022954208D90478A5
:1022100080235B4263400B70013201300131F4E7EF
:102220000024A5420BD9335D9A461800C04701002F
:102230004B461A575046FEF7CFF80134F1E7BD463A
:10224000E0BCBA46B146A846F0BD10B50400FFF7A1
:10225000EEFC2000FFF72DFD2000FFF763FF2000BC
:10226000FFF7B0FF10BD0000F0B5D6464F4646461A
:10227000C0B500AF804639F0D1FE0130FF30FF26F7
:102280000640F31DDB08DB006A46D31A9D46E9468B
:1022900073009A460733DB08DB006A46D31A9D4673
:1022A0006D460024A24504D9FFF7B0FD285501343E
:1022B000F8E734002A004946002C08D013785078FB
:1022C0001B185B0802320B70013C0131F4E7B44289
:1022D0000ED26300E85C0133EB5CC0184010C047CD
:1022E00001004B461A5D0548FEF776F80134EEE72B
:1022F000BD46E0BCBA46B146A846F0BD0DF00000B0
:1023000010B50400FFF75AFC2000FFF72BFD20005A
:10231000FFF7AAFF2000FFF7CBFE10BD10B539F084
:102320007DFE40B210BD0000F0B5D6464F46464691
:10233000C0B500AF814639F071FE0130FF30FF2497
:10234000044063000733DB08DB006A46D31A9D466E
:10235000E846E31DDB08DB006A46D31A9D466D465E
:102360000026A64204D2FFF7D9FFA8550136F8E7A8
:10237000280041460022A2420BD20023C3569BB242
:102380001B029BB20E4E73400B80013201300231B2
:10239000F1E70026A6420CD2AB579A461800C84770
:1023A0000100730042469A5A5046FEF715F801366E
:1023B000F0E7BD46E0BCBA46B146A846F0BDC0460F
:1023C0000080FFFFF8B5DE4657464E464546E0B56D
:1023D00000AF804639F022FE0130FF30FF26064074
:1023E000B3000733DB08DB006A46D31A9D46E94693
:1023F000F31DDB08DB006A46D31A9D466D460024B8
:10240000B44204D2FFF78AFF28550134F8E73400BC
:1024100029004A46002C0DD00023CB569BB21B024C
:102420009BB2174843409BB213805380013C01315B
:102430000432EFE7B4421BD22B579B461800C0472B
:10244000010063009A46A3004A469A5A5846FDF78F
:10245000C3FF2B579B461800C0470100534601336A
:102460005B004A469A5A5846FDF7B6FF0134E1E749
:10247000BD46F0BCBB46B246A946A046F8BDC04624
:102480000080FFFFF0B5D6464F464646C0B500AFC8
:10249000804639F0C3FD0130FF30FF2505406B0059
:1024A0000733DB08DB006A46D31A9D46E946EB1D7D
:1024B000DB08DB006A46D31A9D466E460024AC4218
:1024C00004D2FFF72BFF30550134F8E730004946BE
:1024D0000022AA4207D20023C3561B020B800132FE
:1024E00001300231F5E70024AC420CD233579A4652
:1024F0001800C047010063004A469A5E5046FDF747
:102500006BFF0134F0E7BD46E0BCBA46B146A846D1
:10251000F0BDF8B5DE4657464E464546E0B500AF3D
:10252000824639F07BFD0130FF30FF23034099469E
:102530009B000733DB08DB006A46D31A9D46EB4657
:102540004B460733DB08DB006A46D31A9D466E46CE
:1025500000244C4504D2FFF7E1FE30550134F8E782
:102560004C4631005A46002C08D00023CB561B02A3
:1025700013805380013C01310432F4E74C4519D2F9
:10258000335798461800D04701006500A3005A460B
:102590009A5E4046FDF720FF335798461800D04713
:1025A000010001356D005B46EA5E4046FDF714FF11
:1025B0000134E3E7BD46F0BCBB46B246A946A0469F
:1025C000F8BDF0B5D6464F464646C0B500AF80468A
:1025D00039F024FD0130FF30FF250540EB1DDB08FD
:1025E000DB006A46D21A9546E946D31A9D466E46E6
:1025F0000024AC4204D2FFF791FE30550134F8E7D5
:10260000300049460022AA4209D200240457802300
:102610005B4263400B70013201300131F3E700246B
:10262000AC420BD233579A461800C04701004B46C4
:102630001A5D5046FDF7D0FE0134F1E7BD46E0BC1F
:10264000BA46B146A846F0BDF8B5DE4657464E46F6
:102650004546E0B500AF804639F0E0FC0130FF3080
:10266000FF26064073000733DB08DB006A46D31AF7
:102670009D46E946F31DDB08DB006A46D31A9D46FA
:102680006D460024B44204D2FFF748FE28550134B9
:10269000F8E7340029004A46002C0BD000200856E9
:1026A00080235B424340DBB213705370013C013125
:1026B0000232F1E7B4421AD22B579B461800C047AA
:1026C000010063009A464B4652469A5C5846FDF715
:1026D00083FE2B579B461800C04701005346013329
:1026E0004A46D25C5846FDF777FE0134E2E7BD4624
:1026F000F0BCBB46B246A946A046F8BDF0B5D646EA
:102700004F464646C0B500AF804639F087FC0130E1
:10271000FF30FF250540EB1DDB08DB006A46D21ABF
:102720009546E946D31A9D466E460024AC4204D233
:10273000FFF7F4FD30550134F8E72A003100484630
:1027400004F052F90024AC420BD233579A461800D9
:10275000C04701004B461A575046FDF73DFE013475
:10276000F1E7BD46E0BCBA46B146A846F0BDF8B5B3
:10277000DE4657464E464546E0B500AF824639F044
:102780004DFC0130FF30FF23034099465B000733C7
:10279000DB08DB006A46D31A9D46EB464B460733FF
:1027A000DB08DB006A46D31A9D466E4600244C4582
:1027B00004D2FFF7B3FD30550134F8E74C46320040
:1027C0005B46002C07D00021515619705970013C0E
:1027D00001320233F5E74C4517D2335798461800BB
:1027E000D047010065005B465A574046FDF7F4FDAF
:1027F000335798461800D047010001355B465A57B9
:102800004046FDF7E9FD0134E5E7BD46F0BCBB46B7
:10281000B246A946A046F8BD10B539F0FFFB40B25C
:1028200010BD0000F8B5DE4657464E464546E0B5B9
:1028300000AF804639F0F2FB0130FF30FF26064042
:10284000B34673009A460733DB08DB006A46D21AA8
:102850009546E946D31A9D466D460024544504D258
:10286000FFF7DAFF28550134F8E75C462A004946AD
:10287000002C12D00023D356012010561818C30F75
:102880001B185B105BB202329BB21B029BB210485A
:1028900043400B80013C0231EAE75C4510D2660000
:1028A000A857731CEB56C318D80FC0184010C04768
:1028B00001004B46F25A0748FDF78EFD0134ECE764
:1028C000BD46F0BCBB46B246A946A046F8BDC046D0
:1028D0000080FFFF0DF00000F0B5D6464F4646469B
:1028E000C0B500AF814639F099FB431CFF33FF2090
:1028F0001840440080000730C008C0006B461B1A17
:102900009D46E846E31DDB08DB006A46D31A9D4678
:102910006D460026B44204D9FFF77EFFA855013664
:10292000F8E728004146002294420BD90023C35601
:102930009BB21B029BB20E4E73400B8001320130E2
:102940000231F1E70026B4420CD9AB579A46180081
:10295000C8470100730042469A5A5046FDF73CFDB5
:102960000136F0E7BD46E0BCBA46B146A846F0BD28
:102970000080FFFF10B50400FFF7D6FC2000FFF732
:1029800021FD2000FFF74EFF2000FFF7A5FF10BD3F
:10299000F8B5DE4657464E464546E0B500AF8046A0
:1029A00039F03CFB0130FF30FF260640B346730090
:1029B0009A460733DB08DB006A46D21A9546E94699
:1029C000D31A9D466D460024544504D2FFF724FFD8
:1029D00028550134F8E75C462A004946002C0ED001
:1029E0000023D356012010561818C30F1B185B1074
:1029F0005BB202321B020B80013C0231EEE75C4508
:102A000010D26600A857731CEB56C318D80FC01815
:102A10004010C04701004B46F25E0648FDF7DCFC63
:102A20000134ECE7BD46F0BCBB46B246A946A04621
:102A3000F8BDC0460DF00000F0B5D6464F464646FC
:102A4000C0B500AF804639F0E9FA431CFF33FF20E0
:102A50001840450080000730C008C0006B461B1AB4
:102A60009D46E946EB1DDB08DB006A46D31A9D460E
:102A70006E460024A54204D9FFF7CEFE305501343E
:102A8000F8E7300049460022954207D90023C35693
:102A90001B020B80013201300231F5E70024A54210
:102AA0000CD933579A461800C047010063004A46C4
:102AB0009A5E5046FDF790FC0134F0E7BD46E0BC5D
:102AC000BA46B146A846F0BD10B50400FFF7DAFCDF
:102AD0002000FFF71EFD2000FFF75AFF2000FFF740
:102AE000ABFF10BDF0B5D6464F464646C0B500AF69
:102AF000804639F093FA0130FF30FF260640F31D7F
:102B0000DB08DB006A46D31A9D46E94673009A4605
:102B10000733DB08DB006A46D31A9D466D46002466
:102B2000A24504D9FFF778FE28550134F8E73400B0
:102B300029004846002C10D00023CB5601228A568B
:102B40009A18D30F9B185B105BB20231802252425D
:102B500053400370013C0130ECE7B44210D26300F3
:102B6000E8560133EB56C318D80FC0184010C047C1
:102B700001004B461A5D0548FDF72EFC0134ECE7D9
:102B8000BD46E0BCBA46B146A846F0BD0DF0000017
:102B9000F0B5D6464F464646C0B500AF804639F040
:102BA0003DFA0130FF30FF2505406D00EB1DDB08CD
:102BB000DB006A46D21A9546E946D31A9D466E4610
:102BC0000024A54204D9FFF727FE30550134F8E769
:102BD000300049460022954209D900240457802339
:102BE0005B4263400B70013201300131F3E7002496
:102BF000A5420BD933579A461800C04701004B46EF
:102C00001A5D5046FDF7E8FB0134F1E7BD46E0BC34
:102C1000BA46B146A846F0BD10B50400FFF7D1FC96
:102C20002000FFF711FD2000FFF75CFF2000FFF7F9
:102C3000AFFF10BDF0B5D6464F464646C0B500AF13
:102C4000804639F0EBF90130FF30FF2505406D007B
:102C5000EB1DDB08DB006A46D21A9546E946D31A1B
:102C60009D466E460024A54204D9FFF7D5FD305598
:102C70000134F8E72A003100484603F0B5FE00248D
:102C8000A5420BD933579A461800C04701004B465E
:102C90001A575046FDF7A0FB0134F1E7BD46E0BCF2
:102CA000BA46B146A846F0BDF0B5D6464F464646B0
:102CB000C0B500AF804639F0B1F90130FF30FF26D2
:102CC0000640F31DDB08DB006A46D31A9D46E94641
:102CD00073009A460733DB08DB006A46D31A9D4629
:102CE0006D460024A24504D9FFF796FD285501340E
:102CF000F8E7340029004846002C0CD00023CB56BE
:102D000001228A569A18D30F9B185B100231037068
:102D1000013C0130F0E7B44210D26300E8560133C1
:102D2000EB56C318D80FC0184010C04701004B46DF
:102D30001A570548FDF750FB0134ECE7BD46E0BCEF
:102D4000BA46B146A846F0BD0DF0000010B504002B
:102D5000FFF7D4FC2000FFF70AFD2000FFF7A4FFD7
:102D60002000FFF767FF10BD10B5E12149022048A0
:102D700000F01CF902211C2000F066F802211D2041
:102D800000F062F81B48FEF767F81B48FDF7AEFE3F
:102D90001A48FDF750FF1A48FDF7FEFF1948FEF7E5
:102DA000A1FB1948FEF7B4FD1848FEF799FC184836
:102DB000FEF747FD1748FFF7C2F81748FFF76AF913
:102DC0001648FFF79DFA1648FFF73FFA1548FFF738
:102DD000D1FD1548FFF778FE1448FFF71DFF144892
:102DE000FFF7B4FF134803F05BFF002010BDC0469F
:102DF000004003400D030010390300105F03001072
:102E00008303001015030010450300106703001032
:102E10008F030010210300104903001073030010FA
:102E200095030010290300105903001079030010C6
:102E30009F030010688C041010B502490120FDF7B3
:102E4000B1FA10BDFFFF000010B58300084A944698
:102E500063441C6840226240C02414408022520116
:102E600013431C60C000034B9C466044416010BD8E
:102E700004C0014000400140EFF3108072B6034BE4
:102E80001B68002BFBD0BFF35F8F70472C0100D075
:102E9000BFF35F8F024B00221A6080F310887047E7
:102EA0002C0100D0F8B506000C001500FFF7E4FF78
:102EB000E308F718F15C07222240012393400B42FC
:102EC00005D1DBB20B433B70FFF7E2FFF8BD2100F9
:102ED000280001F035F80000034B1B680220184061
:102EE000431E9841C0B2704700C0064000231F2B0C
:102EF00008D8054A9A189200BFF35F8F002111602D
:102F00000133F4E77047C04640000034054A1078AA
:102F1000431CDBB21370172B02D9130010221A7056
:102F20007047C046C411002070B504000D00062093
:102F300001F020F9C000290002F0FAFCC60908D00F
:102F40000E4B9E4217D87F231840013035004608AB
:102F500000E001256562A6622C34802080010443D4
:102F600000232360062001F005F98000A9018919DA
:102F700002F0DEFC70BD0026014DEBE7FEFF000015
:102F8000FFFF0000002909D00A22064B9C4660443E
:102F9000434258414000044BC252704780225200C5
:102FA000F3E7C0460080FCBFCC35002070B50500BB
:102FB0000C00062001F0DEF8002829D0164B9D42B7
:102FC00027D08022D203154B1A60154B1A60154B7F
:102FD0009B6811009943FAD100212800FFF7D2FF26
:102FE00021002800FFF7A0FF2C002C34E96A6022A2
:102FF0004A406E21114080225201224311600A4B47
:103000002B6380239B01234310221A600323AB64AC
:1030100070BD80221204D6E70080034000E000402B
:1030200000F0004000C000400103000070B5050042
:103030000C00080000F07CFB200000F083FC084935
:10304000200000F0C3FBFFF761FF064B9C46604485
:10305000800068602C75A400034BE55070BDC0462D
:103060004133001040000034A035002010B5002985
:1030700022D003681B7B99421ED8174B9C466144A3
:10308000090183689C4661440C684968002A19D08C
:1030900003681B7B9A4215D883680F4884466244B4
:1030A00012019A1810685368020001208B4201D85F
:1030B0000ED00020C0B210BD084B094A3B21094880
:1030C00000F020FF054B064A3B21064800F01AFF9E
:1030D000A242EFD8EDE7C046FFFFFF0FB88C041007
:1030E000EC8E0410808C041010B500291ED0037BD8
:1030F00099421BD84B005B18033B0468A446634409
:10310000002919D0002A1DD0914221D0002A25D0B3
:10311000047BA24222D8046850008018033820188B
:103120008170197800291FD11A7010BD104B114AF7
:103130006921114800F0E6FE104B114A70310E482B
:1031400000F0E0FE0F4B0E4A71210B4800F0DAFE52
:103150000D4B0B4A7221084800F0D4FE044B054A7F
:103160006921054800F0CEFE41701A70DDE7C046C7
:10317000EC8C0410AC8E0410088D0410548D0410D7
:10318000B88E0410608D04106C8D041070B50600AC
:103190000D001400002914D0002A14D08068736830
:1031A0009847002806D0220029003000FFF79CFF36
:1031B000280007E02A0021003000FFF795FF2000DB
:1031C00000E0100070BD0800FCE70000F0B583B01F
:1031D0000500009201930AAB1C780BAB1F78002C02
:1031E00026D003685A7B944207D10123002B19D1C2
:1031F000002C3BD1200003B0F0BD002C0CD01A7B7A
:10320000944209D81A6863001B19033BD3189B78B2
:10321000002BEBD00123E9E73E4B3F4A69213F48B1
:1032200000F070FE3E4B3F4A65213F4800F06AFEC9
:1032300003689C7B002CDBD012D01A7B94420FD801
:1032400062001219033A19688C46624451789973E6
:10325000002900D1D9730023937053701370C7E70E
:103260002C4B2D4A69212D4800F04CFE002C3AD001
:103270002B681B7B9C4236D82C4BE3181B01AA6899
:1032800094466344009A1A60019A5A60089A9A60B8
:10329000099ADA602E68002C2BD030D0337B9C4208
:1032A0002DD863001B19033B326894466344002207
:1032B0009A705A701A70717B22003000FFF766FF17
:1032C0007073844200D095E7287D009A019B00F03E
:1032D000C5FA061E01D0002F17D00C9B002B00D181
:1032E00088E71E7086E7124B124A3B210E4800F019
:1032F00009FE114B114AA621084800F003FE054BB8
:10330000054A6921054800F0FDFD2868210000F00C
:10331000EFFCE2E7EC8C0410AC8E0410088D041076
:10332000848D04100C8F0410808C0410FFFFFF0F9D
:10333000B88C0410EC8E04107C8C0410CC8E04101D
:10334000F0B5DE4657464E464546E0B58BB009908F
:10335000002308938200B34BD658370052E0B24B9B
:10336000B24A3D21B24800F0CDFDB24BB24A3B21FA
:10337000B24800F0C7FD002901D1002869D1002121
:10338000404600F0ABFCA04219D12A686B68069257
:103390000793AB689846EB689A464346002B14D0D7
:1033A000002C18D03B681B7B9C4214D8631EFA6823
:1033B000D35C08931B0218433861002015E0A04B32
:1033C000A04A8C219D4800F09DFD9F4B9D4A902175
:1033D0009A4800F097FD974B9C4A4021974800F08F
:1033E00091FD00239A46984600207B68BFF35F8FCB
:1033F00000221A6086F310884346002B32D1002841
:1034000000D107E100F0A0F902000B1EA7DB0020AD
:103410000021069007917868EFF3108672B6016874
:103420000029FCD0BFF35F8F396888464C7B002CA5
:10343000D7D09AD0097B8C4297D8854965182D0141
:10344000B9688C46654428686968801A99410029E2
:1034500091DD2A686B68099800F000FA00239A460B
:103460009846C2E7089B1B02234399465146180021
:10347000C04705000E007A68EFF3108B72B6136830
:1034800059424B41D9B2002BF9D1BFF35F8F002EC7
:1034900026DB002E52DD3B69002B53D04B4572D109
:1034A00000F052F902000B1E73DB010018005219E4
:1034B0007341984202D804D1914202D9012252426A
:1034C000D317002B6BDB002104910131039102948F
:1034D00051460191414600913800FFF777FE49E0DF
:1034E0003B69002BD5D04B451CD1069A079B100099
:1034F0001900521BB341994202D804D1904202D91B
:1035000001225242D317002B12DB0021049101311A
:103510000391029451460191414600913800FFF712
:1035200055FE27E04B4B474A9F21444800F0EAFCF8
:103530003D4B3E4A3D213E4800F0E4FC002E01D1C7
:10354000002DA8D13A68002C45D0537B9C422CD149
:10355000012100293FD1D37B002B42D1D473002C11
:1035600052D03B681B7B9C424ED8FA68013C135DED
:103570000133135500233B617A68BFF35F8F1360FB
:103580008BF310883EE7334B2E4AA2212B4800F0E4
:10359000B9FC254B254A3D21254800F0B3FC224BC0
:1035A000224A3D21224800F0ADFC002C0DD0137BB7
:1035B0009C420AD863001B19033B1068844663448D
:1035C0009B78002BC5D00121C3E7234B234A6921F7
:1035D000234800F097FC234B234AF721204800F0B2
:1035E00091FC002B0AD0117B8B4207D85900CB18D5
:1035F000033B11688C4663445C70AFE7164B174A77
:103600006921174800F07EFC0A4B104A40210B4804
:1036100000F078FC0BB0F0BCBB46B246A946A04611
:10362000F0BDC046A0350020AC8D0410948E04106F
:10363000C88D0410B88C0410EC8E0410808C04101B
:10364000108E0410248F0410288E0410F88E04109D
:10365000FFFFFF0F348E0410EC8C0410AC8E0410AE
:10366000088D0410708E0410DC8E041010B50A4B07
:103670005B68002B04D00A21084800F083F910BDD4
:10368000054C2300064A1021206800F047FA032168
:103690002000FFF7CBFCEEE7C8110020B435002076
:1036A0006D30001070B5EFF305833F2018401038DF
:1036B000EFF3108472B6194B1B68002BFBD0BFF3DD
:1036C0005F8F012319008140154A5163154A127812
:1036D0001500C5402B4214D0114B5D6A8300124E79
:1036E0009B599D4206D38300104D5B598A430D4977
:1036F0000A7007E00A4A031D9B009958995000235D
:1037000000E00023BFF35F8F044A0021116084F3BF
:103710001088002B00D0984770BDC046280100D00B
:1037200000400540CB350020B8350020183500207A
:1037300010B50100024A0348FFF7B4FB10BDC046B4
:10374000488F0410C9350020044B5B6A034A906A15
:103750001900536A9942F9D17047C04600400540AC
:10376000074B5B6A8B4204D2054B5B6AFAE7044B5A
:103770005B6A8B4203D1024B9B6A8342F7D370474B
:103780000040054070B504000D00FFF7DDFF0200AA
:103790000B0020002900801859418B4202D804D127
:1037A000824202D901204042C117002902DBFFF703
:1037B000D7FF70BD024B034A3D21034800F0A2FB36
:1037C000AC8D0410D48F0410C88D041070B50400A3
:1037D0000D00EFF3108672B61B4B1B68002BFBD05D
:1037E000BFF35F8F002D1CD0200000F03BFD174B76
:1037F00083420BD01900200000F03CFD0121200085
:1038000000F028FD0123A340114A1360A400114BCE
:10381000E550BFF35F8F0C4B00221A6086F31088CF
:1038200070BDA2000B4B0021D1500122A2400A49D9
:103830000B7893430B700549200000F045FD0021F3
:10384000200000F007FDE4E7280100D0A5360010B5
:103850003860054018350020CB350020F0B5DE4635
:1038600000B584B00400150001921E000293FFF71A
:103870006BFF03958E4202D84ED185424CD9EFF3AF
:10388000108B72B6274B1B68002BFBD0BFF35F8FEA
:10389000254A17780125A540EBB23B431370234B13
:1038A0005D63221D92000199D150A2002049029827
:1038B00050501B6A2B4212D11C4B1B6C2B4208D060
:1038C0000020BFF35F8F174B00221A608BF3108824
:1038D00023E0184B184AC121184800F013FBFFF7EA
:1038E00033FF8E4214D802D1039B834210D80E4B73
:1038F0001B78BB420ED00D4B1D625D631F20044040
:103900000123A3400E4A1360074B1F701E38D8E7EF
:103910000020D6E70120D4E7012004B080BCBB46DC
:10392000F0BDC046280100D0CB3500200040054046
:10393000B83500206C8F0410EC8F0410908F0410A9
:1039400080E200E010B5EFF3108472B60A4B1B68FA
:10395000002BFBD0BFF35F8F01238340074A136224
:1039600007490A789A430A70BFF35F8F024B00221F
:103970001A6084F3108810BD280100D00040054073
:10398000CB350020024B9C466144890001607047A2
:103990004000003470B504000D00FFF7B7FA0100D5
:1039A0002000FFF7EFFFFF2323716571BFF35F8FE7
:1039B00070BD10B50021FFF7EDFF10BD10B5FF2160
:1039C000FFF7E8FF10BD000010B500291ED0037BF3
:1039D00099421BD84B005B18033B0468A446634420
:1039E000002919D0002A1DD0914221D0002A25D0CB
:1039F000047BA24222D804685000801803382018A3
:103A00008170197800291FD11A7010BD104B114A0E
:103A10006921114800F076FA104B114A70310E48B6
:103A200000F070FA0F4B0E4A71210B4800F06AFA51
:103A30000D4B0B4A7221084800F064FA044B054A0A
:103A40006921054800F05EFA41701A70DDE7C04652
:103A5000EC8C041094910410088D0410548D041003
:103A6000A0910410608D04106C8D041070B50600D8
:103A70000D001400002914D0002A14D08068736847
:103A80009847002806D0220029003000FFF79CFF4D
:103A9000280007E02A0021003000FFF795FF2000F2
:103AA00000E0100070BD0800FCE7000010B5002326
:103AB000437301338373037BC3730123027B9A42F5
:103AC00014D9002B0CD0027B934209D85A00D2188B
:103AD000033A01688C4662440133DBB25370EDE770
:103AE0000B4B0C4A69210C4800F00CFA002A09D053
:103AF000924207D8016853009A18033A8A180023A3
:103B0000537010BD024B034A6921034800F0FAF9D3
:103B1000EC8C041094910410088D041010B50173FE
:103B200042608360FFF7C2FF10BD000070B5040063
:103B3000081E00D170BD002934D0237B994231D8B2
:103B40004B005B18033B2268944663445A78002A72
:103B5000F0D02DD0237B9A422AD853009B18033BE8
:103B600021688C4663445D7800215970002825D077
:103B7000237B984222D843001B18033B21688C46C4
:103B800063440021597001002000FFF76FFF060019
:103B900029002000FFF7CAFF020031002000FFF7D4
:103BA00065FFC7E7084B094A6921094800F0AAF9EF
:103BB000054B064A6921064800F0A4F9024B034A66
:103BC0006921034800F09EF9EC8C041094910410D4
:103BD000088D041070B505000C001600002928D0CF
:103BE0002DD0037B99422AD84B005B18033B026817
:103BF000944663445A78002A27D19A78002A2AD119
:103C00001978FFF793FF0300002E03D0EA7B002A08
:103C100027D1EC73002B37D1002C49D02B7B9C4251
:103C200046D82B6861000C19033C1C1900236370F3
:103C300070BD224B224A3821224800F063F9224B02
:103C4000224A6921224800F05DF9224B1C4A3A21A0
:103C50001C4800F057F9204B194A3B21194800F045
:103C600051F9002A0AD0297B8A4207D851008A18C4
:103C7000033A29688C4662445470CAE7124B134ACF
:103C80006921134800F03EF9002B0BD02A7B9342A8
:103C900008D843001B18033B2A689446634400225B
:103CA0009A70B9E7084B094A6921094800F02AF9D6
:103CB000054B064A6921064800F024F9E0900410FB
:103CC000B4910410E8900410EC8C0410949104104A
:103CD000088D0410209104104891041070B5040060
:103CE0000A00457B2900FFF775FF6073280070BD4F
:103CF00070B50400002966D0437B8B420ED00029AA
:103D000011D0037B99420ED84B005B18033B02682D
:103D1000D0188378002B0CD1002055E00121FFF74B
:103D2000DDFF012050E0294B294A6921294800F094
:103D3000E9F8002B1FD0227B93421CD825685A003B
:103D4000D318033BEA18EB5C8B421AD0002B1BD034
:103D5000227B934218D85A00D318033B2268D2180A
:103D600053788B4216D0002BF0D11B4B1B4A672196
:103D70001B4800F0C7F8154B154A6921154800F09B
:103D8000C1F84378137007E0104B114A69211148BC
:103D900000F0B8F843785370002383704370012219
:103DA0002000FFF717FF0200617B814205D0200051
:103DB000FFF75CFE6073012006E00A4B074A6D21A5
:103DC000074800F09FF8002070BDC046EC8C04103E
:103DD00094910410088D04106C910410C891041083
:103DE000E89004107491041070B5264B264A1A60AE
:103DF000264B274A1A60274B9A68254B9343FAD1E2
:103E0000254C264B9C4202D208CC9847F9E700F09B
:103E100031F91E4B224A1A601E4B9B68DB43DB01C3
:103E2000FAD1204B40229A675A671A67DA661E4C0D
:103E300003E02000FFF7BDFD08341C4B9C4206D276
:103E40006379002BF5D02000FFF7B8FDF4E7184C9C
:103E5000A168184DC022280002F0C6FDA560FCF73D
:103E600002FA002800D000BEFFF740F800F08EFBF9
:103E7000FFF7FCFB104C01E008CC98470F4B9C422D
:103E8000FAD370BD00E00040BFCDFBFE00F0004063
:103E9000FE7F3C0000C00040101D0020201D0020BF
:103EA000FFFFFF0100F00140081D0020101D002051
:103EB00000ED00E000000020201D0020441D002037
:103EC00000BEFDE703000A4A1268002A08D0084A2B
:103ED0001068C318074A9A4206D3054A1360704710
:103EE000034A05491160F2E701204042F7E7C04666
:103EF0009835002000000420FC37002010B5FFF7A3
:103F0000DFFF000010B582B00C001900002A0CD0B1
:103F1000084B002A0BD001920093230002000648B0
:103F200002F0EEFE0120FFF7CBFF044BF1E7034A5E
:103F3000F1E7C046E0910410F0910410D0C60410DF
:103F40000FB400B583B0084802F0AAFE049B002B12
:103F500007D005A90191180002F0B0FE034802F055
:103F60009FFE0120FFF7ACFF20920410FCD204104A
:103F7000F8B5DE4657464E464546E0B505000F000B
:103F800092461E000A9B9E424ED3330E994636023D
:103F90000A9A00233000494601F00CFD80466C006F
:103FA0006419A4002E4B9C4664446368834200D28B
:103FB00060602B1FDBB29B46012B3BD9C0239B01CA
:103FC0002343802212011A60AB00264A9958002927
:103FD00005D0506901F0ACFC01300138FDD15346E9
:103FE0005A0123685A40E0231A4080235B0123438F
:103FF0001A605A46012A28D980239B012343802234
:1040000012011A604346636042460023300049466D
:1040100001F0D0FCAD00134B58510120F0BCBB4661
:10402000B246A946A046F8BD0F4B104A2D211048B4
:10403000FFF768FF012FC1D1C0239B012343032257
:104040001A60A368DB07FCD5C9E721687940032221
:104050000A401A60A3680122BA401A42FAD0CBE79C
:10406000008000402835002030920410889204100F
:104070004492041030B583B00C2000F01FFBFEF713
:104080002BFF00280DD00023092B05D899002D4ABD
:104090002D4888500133F7E72A4B2C4A5A6203B067
:1040A00030BD2B4B00229A6700F010FB294B0122F8
:1040B0001A60274B5B6C012BFBD1274B03221A6044
:1040C000234B9B6B012BFBD1022400940533234A25
:1040D0000121234800F066FA00940523214A0121BA
:1040E000214800F05FFA214B0093002202210420B6
:1040F000FFF73EFF1E4D00952B00002201210520F9
:10410000FFF736FF104C0094230000220021072007
:10411000FFF72EFF00942300002200210820FFF764
:1041200027FF0A4B00932300002200210920FFF7FC
:104130001FFF00952B00002200210620FFF718FF2B
:10414000ADE7C04628350020006CDC021BB700003C
:10415000008000403CB0004030B00040002F685963
:104160000080024000389C1C00C00240001BB700C9
:10417000405973078000014BC05870472835002014
:10418000074B9B68103080001950BFF35F8FBFF35F
:104190005F8F044B0021196082F310887047C0467E
:1041A00000ED00E0240100D010B5091A04394808D8
:1041B000090B05D14005400D044B184380B210BDDA
:1041C000034B044A8C210448FFF79CFE00E0FFFFEC
:1041D0009892041070940410A892041010B5091A53
:1041E00004394C08090B08D14905490D064A114309
:1041F0000180064B2343438010BD054B054A9421A3
:104200000548FFF77FFEC04600F0FFFF00F8FFFF04
:10421000989204107C940410A89204100123834007
:10422000034A10681840431E9841C0B27047C04608
:1042300000E100E0002904D0034B1860034B186034
:104240007047034B1860FBE780E200E000E100E00C
:1042500080E100E010B5012383401800FFF7EAFF7A
:1042600010BD0000024B9B6810308000C0587047A2
:1042700000ED00E070B504000D00EFF3108672B69B
:104280000C4B1B68002BFBD0BFF35F8F2000FFF7A8
:10429000E9FF094B984201D0A84205D1320029001C
:1042A0002000FFF76DFF70BD044B054A70210548E3
:1042B000FFF728FE240100D0CD010010E892041081
:1042C00054940410A8920410F0B5CE46474680B529
:1042D00083B006000D00EFF3108872B6574B1B68D1
:1042E000002BFBD0BFF35F8F554B9A68340010341E
:1042F000A300D758534B9F4207D0AF4200D19BE059
:104300000197514BFB1A2F2B09D942463900300037
:10431000FFF736FF03B0C0BCB946B046F0BD300071
:10432000FFF77CFF814600213000FFF793FFBFF3CA
:104330005F8FFBF798FF002801D0844219D1012339
:10434000019C9C43230040495B1A5B414849594307
:10435000090D49B20022A368AB4212D00622A25630
:10436000002A0DDB53009B189B002200364CE418FA
:10437000F1E72021354B364AFF313648FFF7C2FDC1
:104380002200AB4251D106256557002D39DB6B0069
:104390005B199A002C4B9B189A68A260DA79E2713B
:1043A00006229A56A2719B795BB2002B10DABD20CF
:1043B0000002A0806B005B199B00234AD318264A99
:1043C00011789971157049463000FFF743FF9CE75B
:1043D000201D6B005B199B001B4A9B181A1D9B88B4
:1043E000D90A1C2907D1590549150231490051182C
:1043F000FFF7DAFEDDE7194B194A9A211548FFF756
:1044000081FD00280CD1002A08D0FF239371154BA1
:104410009380114B1A78A2711970D4E7094FF8E70D
:10442000201D1149FFF7DAFECDE7AA210F4B084AFC
:1044300049000848FFF766FD024F66E7240100D0F7
:1044400000ED00E0CD010010F0110020FC930410FD
:10445000A4940410A8920410CA350020E493041018
:104460009494041000BDFFFF2A120020E48B041076
:10447000AAAA000010B5032304009C43064A9446F0
:10448000644422681840C000FC3383409A43130000
:1044900081400B43236010BD00E400E0F8B5040048
:1044A000012606432D4BF31A2F2B28D8FBF7DBFEF2
:1044B00000282BD0EFF3108772B6294B1B68002B16
:1044C000FBD0BFF35F8F2300244D5B1B5B412E4D60
:1044D0005D432D0D6DB2234B9B6880001B58B3428A
:1044E0001BD00022032A32D853009B189B001B4983
:1044F000CB189B795BB2AB421FD00132F2E772213D
:10450000194B1A4AFF311A48FFF7FCFCBA21194B24
:10451000164A49001648FFF7F5FC124B9B68164AED
:104520001A50164B1A78A2711D70BFF35F8F0C4B97
:1045300000221A6087F31088F8BD0800530099180C
:1045400089004118FF268E710D4A8A80E9E786218D
:104550000C4B064AFF310648FFF7D4FCF01100204F
:10456000240100D000ED00E020940410B894041061
:10457000A892041048940410CD010010CA35002000
:1045800000BDFFFF6C910410AAAA000010B5002422
:104590001F2C05D880212000FFF76CFF0134F7E7BE
:1045A00010BD0000F0B5CE4600B504000E009146E7
:1045B0001F000C2001F0BCF9050043011B1A9901F2
:1045C000C91AC90009188901484601F0B1F9020069
:1045D000103A98235B009A4233D87B1E062B36D8BC
:1045E000069B013B062B32D8069B9F4235D34B4698
:1045F0001A09AA4237D33F04069B1D032F432368A1
:10460000002B36DB234B9C4241D080256D01224B91
:104610001D60224B1D60224A92682B009343FAD101
:104620002660A060221DC0239B01134321221A6033
:104630002268002AFCDAE76008221A6080BCB946CA
:10464000F0BD184B184A16211848FFF75BFC184BB1
:10465000154A19211548FFF755FC164B124A1F2120
:104660001248FFF74FFC144B0F4A22210F48FFF767
:1046700049FC22683F231340B342C3D1A3681B0502
:104680001B0D8342BED1E368002FBBD1D6E7802546
:10469000AD01BCE700C0024000E0004000F0004077
:1046A00000C00040D4940410B0950410F09404109D
:1046B000309504107C9504109495041080239B0081
:1046C0000343014AD362704700800540064BAA228B
:1046D00012011A602F22DA60044B054A1A60024B5D
:1046E0005B68002BFBDA704700400240006002402C
:1046F00000B0FA009A4200D288547047704710B553
:10470000002802D00B684968984710BD01000020BE
:104710000A681378303BDBB2092B08D883001B18DA
:104720005B00501C08601078C0183038F0E7704704
:10473000F0B5DE4657464E464546E0B583B0934653
:104740001F000C9B9A460D9C0E9B99460F9B9B0746
:1047500003D0B8460F00060022E00192A346884627
:104760004E46B9460700B44207D2551C4B46414657
:104770002020B84701342A00F5E73D004F465C464B
:10478000019B9B46B1464646B84637002E0007E0DF
:10479000013C551C5346185D43463900B0472A007A
:1047A000002CF5D135003E0047460F9B9B0707D4F0
:1047B000100003B0F0BCBB46B246A946A046F0BD0F
:1047C000B0464E46B9462F005D46531BB342EFD26A
:1047D000541C4B4641462020B8472200F5E7F0B56F
:1047E000CE46474680B585B0944698460C9D0D9CB4
:1047F0000EAB1B789946109A119B129EB7071BD4DB
:10480000002B08D0F70706D54F46002F02D10C37F2
:10481000374200D0013B944208D21F2C06D83027E3
:104820002F550134F7E730272F550134F70703D50B
:104830009C4201D21F2CF6D9F70615D5770505D471
:10484000002C03D0944224D09C4222D00F9A102AEC
:104850002BD00F9A102A30D00F9A022A35D01F2C55
:1048600002D830222A5501341F2C05D84A46002A86
:1048700031D02D222A5501340396029301940095DC
:1048800043466246FFF754FF05B0C0BCB946B04688
:10489000F0BD621E012C06D00F9F102F01D0140016
:1048A000D4E7023CD2E71400D0E7B206D1D41F2CE3
:1048B000CFD878222A550134D1E7B206CCD51F2CA7
:1048C000CAD858222A550134C9E71F2CC7D86032EC
:1048D0002A550134C3E7720703D52B222A55013428
:1048E000CAE73207C8D520222A550134C4E7F0B5FB
:1048F000DE4657464E464546E0B593B081468A4669
:10490000089209931CAB10CB1B789B461E9D219BE4
:104910009846002C03D1102342469A4390468023A8
:10492000DB0046461E4042461A4212D0002C22D0DE
:1049300000260EE03033D9B2771C0AAB9955290016
:10494000200000F0F5FFAC4216D31F2F14D83E0014
:1049500004002900200000F0EBFFCBB2092BE9D9BD
:104960004246920605D54121C918C9B20A39C9B2D1
:10497000E2E76121F8E7270043460693209B059371
:104980001F9B049303955B46029301970AAB009328
:10499000099B089A51464846FFF721FF13B0F0BC27
:1049A000BB46B246A946A046F0BDF0B5DE46574626
:1049B0004E464546E0B595B0089009910A920B9392
:1049C0001E9E1F9C20AB1B789B46229B9946239DD5
:1049D000269B9A463300234303D1103352469A4311
:1049E00092468023DB0057461F4052461A4219D098
:1049F000330023432DD0002714E03033DAB27B1C80
:104A000098460CABDA554A462B003000210000F0E6
:104A1000D1FFA5421FD819D043461F2B1BD84746AC
:104A200006000C004A462B003000210000F0C2FFB7
:104A3000D3B2092BE1D95246920605D54122D218AC
:104A4000D2B20A3AD2B2DAE76122F8E7B145E3D945
:104A500001E00023984653460693259B0593249B2B
:104A600004934B4603935B460293434601930CAB7E
:104A700000930B9B0A9A09990898FFF7B0FE15B0AE
:104A8000F0BCBB46B246A946A046F0BDF0B5DE4636
:104A900057464E464546E0B591B083468A460C924D
:104AA00098461A9C08941B9D099522002B00200013
:104AB000290001F014FA002800D0E5E0012252425A
:104AC000D34B2000290001F005FA002800D0DBE0DC
:104AD00001225242CF4B2000290001F0E5F90028C5
:104AE00000D0D1E000220023089D2800099E31005B
:104AF00001F0DAF9002800D0DDE008980999069065
:104B000007918023DB001E9A1A400D921E9A1A42CA
:104B100001D106231C930698079904000D000A0092
:104B20000600024300D1CDE0080D4005400DBA4C0F
:104B3000A44660440A03120BB84B13431F0001F054
:104B4000E1F9B74AB74B01F064F9B74AB74B01F046
:104B500039F904000D000022B54B3000390001F096
:104B600028F9B44AB44B01F054F902000B002000BC
:104B7000290001F027F901F0DDF9814601F0C2F9C1
:104B800004000D00AD4AAE4B01F043F90022AD4BDD
:104B900001F018F901F0CEF90600AB4AAB4B20004A
:104BA000290001F036F904000D00300001F0AAF9E7
:104BB000A74AA84B01F02DF902000B0020002900A4
:104BC00001F0F7F804000D0002000B0001F021F9DC
:104BD0000A900B91A04BF31800261F0522002B0012
:104BE0002000290001F0EEF80E900F9122002B001A
:104BF00000208021C90501F0DCF804000D0000222E
:104C0000964B0A980B9901F0E6F80022944B01F0BC
:104C1000D9F802000B000A980B9901F0DCF8002289
:104C2000904B01F0CFF802000B000A980B9901F0AD
:104C3000D2F802000B002000290001F0C3F80200A6
:104C40000B000E980F9901F0C6F80022734B01F08B
:104C5000B9F832003B0001F0DCF806000F00040058
:104C60000D00069A079B01F035F900282CD001238E
:104C70005B429C46E1440022794B3000390001F050
:104C8000AAF804000D001FE01E9B04931D9B0393D4
:104C90001C9B0293089A099B0092019343460C9A2D
:104CA0005146584600F0F8F811B0F0BCBB46B24689
:104CB000A946A046F0BD069580231B069C46664487
:104CC00007961EE7002399464B466333C62B1FD831
:104CD00004261E9B1B0527D52B00234310D0624AB8
:104CE000624B0698079901F0EDF8002800D183E0A7
:104CF00000225F4B0698079901F0D6F800287BD078
:104D00001C9B4B4506DD4A46981A431E1C9303E044
:104D10000526DEE700231C938023DB001E9A1A433E
:104D20001E920026002399461D9B9E426ED29F1B19
:104D300002231E9A1A400A921E9A134202D0002E93
:104D400000D000274B46002B07D022002B000698EE
:104D5000079901F040F80690079100220023089877
:104D6000099901F0A1F8002800D085E0414B1E9A76
:104D70001340049303971C9B0293069B079C00938C
:104D8000019443460C9A5146584600F085F8002E8F
:104D900000D189E71E9B9B067AD54525441C4346D6
:104DA000020051462800D8474B46DA179B1853405B
:104DB00005220592013E0496002203920A320292D5
:104DC0004A46D00F01900093434622005146584670
:104DD000FFF78DFD0A9B002B00D165E702005F46BF
:104DE0000C9E1D9D931BAB4254D2541C434651460E
:104DF0002020B8472200F5E71C9B002B94D00D9B88
:104E0000002B91D01C9B013B1C938DE700278FE763
:104E1000FFFFEF7FFFFFEFFF01FCFFFF0000F03F10
:104E2000FB799F501344D33FB3C8608B288AC63F99
:104E30000000F83F61436F63A787D23F71A37909F0
:104E40004F930A400000E03F1655B5BBB16B0240DE
:104E5000EF39FAFE422EE63FFF03000000002C402F
:104E600000002440000018402D431CEBE2361A3F9E
:104E700080842E41FFF7FFFF069C079D220029003A
:104E800080200006844661440B00069207936DE77C
:104E9000652583E7100007E7F0B5DE4657464E4626
:104EA0004546E0B595B00690079193469946209FF8
:104EB0001E9A1F9B1000190001F011F8002831D133
:104EC00001225242BF4B1E981F9900F0EDFF0028AF
:104ED00037D101225242BC4B1E981F9900F0FAFFB5
:104EE00000283DD10022B94B1E981F9900F0F2FF17
:104EF000002850D10022B64B1E981F9900F0D4FF15
:104F0000002848D1002200231E981F9900F0CCFFF2
:104F1000002850D100239846229B5B0500D4B6E0C0
:104F2000002458E0229B0393219B029303230193C7
:104F3000A84B00934B465A4607990698FFF7F8FB93
:104F40000EE1229B0393219B029304230193A24B26
:104F500000934B465A4607990698FFF7E9FBFFE096
:104F60000423229A1A4022990B4210D09B4B002A0C
:104F70000FD004222299039121990291019200936A
:104F80004B465A4607990698FFF7D2FBE8E0944B48
:104F9000EDE70322EEE7229B0493219B0393029704
:104FA0001E9B1F9C009301944B465A4607990698F6
:104FB000FFF76CFDD4E01E9A1F9B0020002100F03B
:104FC000F8FE1E901F9101239846A5E70CAB3022F6
:104FD0001A55013F01341F2C01D8092FF6D81E980D
:104FE0001F9900F0A7FF050000F08CFF02000B00E6
:104FF0001E981F9900F0DDFEFA007A4B9B181A6884
:105000005B680A920B9300F004FF0890099100F08E
:10501000B5FF060000F072FF02000B000898099926
:1050200000F0C7FE0890099100226F4B00F052FF7C
:1050300000282ED00136300000F060FF02000B0087
:105040000A980B9900F036FF002801D001350026A0
:10505000002F2CD1280000F055FF02000B001E98F5
:105060001F9900F0A6FE06000F0000225E4B00F024
:105070001BFF002842D100225B4B3000390000F0BA
:1050800029FF00283AD1EB0738D5013536E006274D
:1050900046E70022544B0898099900F005FF0028C4
:1050A000D6D1002E01D0F307D2D50136D0E7AA46DB
:1050B0001F2C11D8013F0A21300000F039FC651C7B
:1050C00030310CAB19550A21300000F031FC092EAB
:1050D00026D906002C00EBE7554604E00CAA302147
:1050E00011551F0001341F2C02D87B1E002FF5D153
:1050F0001F2C03D80CAB2E221A5501341F2C14D8A8
:105100000A21280000F0ECFB661C30310CAB19556D
:105110000A21280000F0E4FB051E05D03400EDE76D
:105120002B0055461C00DEE734000323229A13406F
:10513000012B1CD01F2C06D84346002B32D00CABC1
:105140002D221A550134229B0393219B0293019433
:105150000CAB00934B465A4607990698FFF7E8FABE
:1051600015B0F0BCBB46B246A946A046F0BD219B97
:10517000002B13D04346002B02D10C3313420FD027
:10518000219B013B2193190003E00CAB30221A55FF
:1051900001348C42CED21F2CF7D9CBE72199F8E706
:1051A0002199F6E7229B5B0704D50CAB2B221A55FD
:1051B0000134C8E7229B1B07C5D50CAB20221A552A
:1051C0000134C0E7FFFFEFFFFFFFEF7F65CDCD416B
:1051D00065CDCDC1C8950410CC950410C0950410C0
:1051E000BC950410B89704100000E03FF0B5DE460F
:1051F00057464E464546E0B593B082468B469046AC
:105200001193002900D1ECE200275546119B187834
:10521000002800D1E8E2252809D07C1C43463A004A
:105220005946A847119B013311932700EEE701333C
:10523000119300241DE00B00303BDBB2092B37D962
:105240002A293AD000230A93119B1A782E2A44D097
:1052500000239A46119A1378683BD9B2122900D9D3
:1052600080E08B00CB49CB589F4601231C43013281
:105270001192119A11780B00203BD8B21028DAD87D
:105280008300C548C3589F4602231C430132119234
:10529000EFE704231C4301321192EAE708231C4381
:1052A00001321192E5E710231C4301321192E0E72D
:1052B00011A8FFF72BFA0A90C6E71C9B1A1D1C9237
:1052C0001868002804DB0A90119B01331193BBE797
:1052D00002231C4343420A93F6E78022D200144380
:1052E0005A1C11925A781300303BDBB2092B04D9B7
:1052F0002A2A07D000239A46ACE711A8FFF706FA3E
:105300008246A7E71C9B1A1D1C921868002804DB24
:105310008246119B013311939CE70020F8E780231C
:105320005B002343511C119152786C2A01D01C0060
:1053300018E0C0239B001C430131119112E080232F
:105340002343511C11915278682A01D01C0009E0B6
:10535000C0231C430131119104E080235B001C43F6
:1053600001321192119B18780300253BDAB2532ABF
:1053700000D92CE29300894AD3589F4680239B0092
:105380001C4301321192EDE780235B001C43013284
:105390001192E7E7782809D0582838D06F2838D0FC
:1053A000622838D010239C430A2600E01026582893
:1053B00033D0692803D0642801D00C2294436305BC
:1053C00001D50122944369282AD0642828D0A30556
:1053D00000D59FE0E30500D5B8E0630600D4CAE03D
:1053E0001C9A111D1C911168FF220A4005940A9B0A
:1053F000049353460393029600230193009243467D
:105400003A0059462800FFF772FA070027E01026F5
:10541000CDE70826CBE70226C9E720221443C8E7D8
:10542000A30520D4E30550D4630666D51C9A111D4C
:105430001C911168FF220A40D317D11859400594D6
:105440000A9B0493534603930296D20F0192009154
:1054500043463A0059462800FFF749FA0700119BD6
:1054600001331193D2E61C9BDA1D07218A431100F8
:1054700008311C91116853689C46DB170C930D93FF
:105480000C9A0D9B100048400E90624653400F93BB
:105490000E980F990C9A0D9B801A99410E900F91BE
:1054A00008940A9B0793534606930496002305939A
:1054B0006346DA0F02920090019143463A00594642
:1054C0002800FFF772FA0700C9E71C9A111D1C910A
:1054D0001268D317D118594005940A9B0493534678
:1054E00003930296D20F0192009143463A00594627
:1054F0002800FFF7FCF90700B1E7230605D51C9A41
:10550000111D1C910023D25E96E71C9A111D1C915F
:10551000126891E71C9BDA1D07218A4311000831AC
:105520001C9108940A9B0793534606930496002304
:1055300005930293136854680093019443463A001C
:1055400059462800FFF731FA070088E71C9A111D19
:105550001C9105940A9B04935346039302960023DF
:1055600001931368009343463A0059462800FFF719
:10557000BEF9070073E7230606D51C9A111D1C917E
:1055800012681204120C31E71C9A111D1C9112684A
:105590002CE7C046D495041020960410649604109D
:1055A00046281AD01C9B0733072293431A0008325F
:1055B0001C9204940A9A0392524602925C681B68F9
:1055C0000093019443463A0059462800FFF764FCD3
:1055D0000700119B0133119318E620231C43E1E7D8
:1055E000672801D0472802D180231B011C4345288E
:1055F00001D0472801D120231C431C9B07330722DD
:1056000093431A0008321C9204940A9A0392524659
:1056100002925C681B680093019443463A00594625
:105620002800FFF733FA0700119B01331193EDE5D2
:1056300002231A002240924623421FD001241C9BC1
:105640001A1D1C927A1C9146187843463A00594616
:10565000A8475346002B16D1119B013311934F4697
:10566000D4E5561C434659462020B8472300320053
:105670005C1C9D42F5D83D001700E0E701233A008D
:105680002F000A9DF4E74A46A9460A9D06E0571CEA
:10569000434659462020C84734003A00661CA542BC
:1056A000F5D84D469146D7E71C9B1A1D1C921B68E6
:1056B00099465346002B00D1013B4E4601E001368E
:1056C00013003278002A02D05A1E002BF7D14B4625
:1056D000F21A10928023DB0026001E401C4203D0E9
:1056E000524501D95346109302231A0022400B92CF
:1056F000234205D03A0037004C46A946554620E0E3
:105700003A00109B5F46B3462E0006E0551C434608
:1057100039002020B04723002A005C1C0A999942D6
:10572000F4D835005E46BB46109437004C46A94677
:10573000554606E01D000134561C43465946C847ED
:1057400032002078002804D0002FF4D06B1E002DEA
:10575000F0D117004D460B9B002B03D1119B013359
:10576000119353E50A9F109B06E0561C4346594689
:105770002020A847230032005C1C9F42F5D8170068
:10578000ECE721231C431C9B1A1D1C921B680093F1
:105790000594082304935346039310230293002394
:1057A000019343463A0059462800FFF7A0F8070046
:1057B000119B0133119329E57C1C43463A0059465D
:1057C0002520A847119B0133119327001EE57C1C5F
:1057D00043463A005946A847119B013311932700CD
:1057E00014E50B4B9A460FE5AA4647450DD34346B1
:1057F0005A1E434659460020D047380013B0F0BC2B
:10580000BB46B246A946A046F0BD3A00F1E7C04605
:10581000FD4600100EB410B585B0010007AC08CCF1
:1058200003940122009452420348FFF7DFFC05B0C5
:1058300010BC08BC03B01847F546001000B583B093
:10584000009313000A0001000248FFF7CFFC03B0E9
:1058500000BDC046F546001000B585B0029003912A
:105860000121009313004A4202A90248FFF7BEFC3F
:1058700005B000BDFF46001001480421014B184748
:1058800040120020A958001010B5010018231B88F1
:1058900014221088984710BD10B5010018231B88EA
:1058A00016221088984710BDF0B5C64600B507000F
:1058B0000E0000250123984600E00135B5420AD2CA
:1058C000AC003C192068FFF7DFFF20600028F4D10E
:1058D00000239846F1E7404680BCB846F0BD000082
:1058E000124A936F9B0815D29066D166002905D0A5
:1058F000FFE7FFE7FFE7516F106F704704B58021A6
:105900000906C2175140002800D0C84343F004F9EB
:10591000002104BDF0B5146E556E576F166FFFF77A
:10592000E3FF1466556657671667F0BD000000D0A8
:10593000114A936F9B0813D210665166002905D057
:10594000FFE7FFE7FFE7516F106F704704B50028CE
:1059500001D00020C04343F0DFF8002104BDC04661
:10596000F0B5146E556E576F166FFFF7E5FF1466AE
:10597000556657671667F0BD000000D094464E4A42
:10598000926F9208624601D230E0C046F0B54A4EAE
:10599000B56F6D08FCD3346E756E776F366F00F09F
:1059A00025F89446444A146655665767166762465A
:1059B000F0BDC0469446404A926F9208624601D2BA
:1059C00058E0C046F0B53C4EB56F6D08FCD3346E60
:1059D000756E776F366F00F04DF89446364A146650
:1059E0005566576716676246F0BDC046002B24DB3C
:1059F00011D000293EDA00B5C943404200D101313F
:105A000000F038F8C943404200D10131DB43524233
:105A100000D1013300BD002AEBD1002801D10029BB
:105A200005D00020C90FC90701D1C043410800B506
:105A300043F04AF80022002300BD00B500290ADB2C
:105A4000DB43524200D1013300F014F8C943404215
:105A500000D1013100BDC943404200D10131DB43D7
:105A6000524200D1013300F005F8DB43524200D12D
:105A7000013300BD002923D1002B18D1002A0CD0FE
:105A8000BC460D4F38667A6600210023FFE7FFE72A
:105A9000FFE77A6F386F67467047002801D00748E4
:105AA000010000B543F010F80022002300BD020001
:105AB0000B00002000217047000000D0FFFFFFFF17
:105AC000002B00D0BDE0130C26D1002AE7D080B413
:105AD000104F39667A66FFE7FFE730B4040C7B6F3E
